S01000004D53465F5363616E2E737265634A
S11300000C9435010C945D010C945D010C945D011C
S11300100C945D010C945D010C945D010C945D01E4
S11300200C945D010C945D010C945D010C945603D9
S11300300C945D010C945D010C945D010C945D01C4
S11300400C945D010C945D010C945D010C945D01B4
S11300500C945D010C945D010C945D010C945D01A4
S11300600C945D010C945D0100000007C0000000C9
S11300700000000FF00000000000003C3800000009
S1130080000000701C000000000000600E00000072
S1130090000000E007000000000001C003000000B1
S11300A00000018003800000000003800180000044
S11300B00000030001C000000000030000C00000B5
S11300C00000060000C00000003FC6000067FC00FE
S11300D001FFFE0000FFFF8007C03FC003FC03C018
S11300E007000FF81FF000E00C000C3EFC3000701D
S11300F00C000C0FE030003018001C0FF0300038FA
S11301001800183E78300038180018781E18003887
S11301101C0019E0079800300C001F8001F8003023
S11301200C001F0000F8007006003C00003800605E
S113013006007800001E00E00300F000001F00C06D
S11301400381F000001F81C001C7B0038019C38080
S113015000CE3007E01CF70000FC300FE01C3E002E
S11301600078300FF01C1C000078300FF01C1C00CD
S113017000FC300FE01C3E0000CE3007E01CF7000E
S113018001C7B003C019C3800381F000001F81C000
S11301900300F000001F00C006007800001E00E00D
S11301A006003C00003800600C001F0000F800301E
S11301B00C001F8001F800301C0019E00798003083
S11301C0180018F81E1800381800183E7C30001863
S11301D018001C0FF03000381C000C07E030003011
S11301E00C000C3FFC3000300E000FF81FF00060D4
S11301F007C03FC007F803E001FFFE0000FFFF80D7
S1130200007FE6000067FE000000060000C000005A
S11302100000030000C000000000030001C0000053
S113022000000380018000000000018003800000C2
S1130230000001C003000000000000E0070000000F
S1130240000000600E000000000000301C000000F0
S11302500000003C380000000000000FF000000027
S113026000000007C0000000540711241FBECFEF98
S1130270D8E0DEBFCDBF11E0A0E0B1E0E4E1F2E1FF
S113028002C005900D92A638B107D9F725E0A6E87B
S1130290B1E001C01D92AD38B207E1F711E0C5E34A
S11302A0D1E004C02197FE010E945208C433D10753
S11302B0C9F70E94D9030C9408090C940000662322
S11302C0ACF1403498F52223C9F0242F26952695C5
S11302D0269550E8259F90011124260F311DFC011D
S11302E0E20FF31F477081E090E002C0880F991F6E
S11302F04A95E2F79081892B80830895242F2695CF
S11303002695269530E8239FF0011124E60FF11D70
S1130310E80FF91F477081E090E002C0880F991F31
S11303204A95E2F7809590818923808308952F92DE
S11303303F924F925F926F927F928F929F92AF9271
S1130340BF92CF92DF92EF92FF920F931F93CF93BE
S1130350DF9300D01F92CDB7DEB7E22FF0E03796DF
S11303603F011AF437E0630E711C75946794759419
S1130370679475946794442309F44BC0422E5B013F
S11303806C01242E2E0C812C912C77240983312C82
S113039000E810E030C08F2D869586958695EA8119
S11303A0FB81E80FF11DEA0DFB1D84919F2D9770D1
S11303B0980102C0359527959A95E2F7E82FF0E069
S11303C0E223F323EF2B39F021E04E2D652DC601F6
S11303D00E945F0106C0232D4E2D652DC6010E948B
S11303E05F01F3945394F410D6CF8FEF881A980AD0
S11303F0E394E21471F04420C1F3869CF001879CDD
S1130400F00D969CF00D1124FB83EA835980F32CA4
S1130410C2CF0F900F900F90DF91CF911F910F914A
S1130420FF90EF90DF90CF90BF90AF909F908F9010
S11304307F906F905F904F903F902F900895662328
S1130440CCF04034B8F4242F26952695269530E830
S1130450239FF0011124E60FF11DE80FF91F4770E7
S113046081E090E002C0880F991F4A95E2F79081DD
S1130470892B80830895FF920F931F93CF93DF936B
S1130480222369F0C42FF62E8C01D22FD40F4C2FC7
S11304906F2DC8010E941F02CF5FCD13F8CFDF91EB
S11304A0CF911F910F91FF900895FF920F931F9387
S11304B0CF93DF93222369F0F42EC62F8C01D22F21
S11304C0D60F4F2D6C2FC8010E941F02CF5FCD1392
S11304D0F8CFDF91CF911F910F91FF900895CF92A4
S11304E0DF92EF92FF920F931F93CF93DF93EC0170
S11304F0F62E142FD22EE22EE61AE394C02EC41A3E
S11305002E2D0E9455022E2D402F6F2DCE010E94BC
S113051055022C2D412F6F2DCE010E943B022C2D14
S1130520412F6D2DCE010E943B02DF91CF911F918F
S11305300F91FF90EF90DF90CF9008955F926F92AC
S11305407F928F929F92AF92BF92CF92DF92EF925F
S1130550FF920F931F93CF93DF936C01762E842E1B
S1130560E11003C00E946F0224C0041B2F5F261BEE
S1130570A22EB12C1A141B0494F01BC04C2F480D4E
S1130580692DC6010E941F0221960C171D07B4F79E
S11305908FEFE81AF80AEA14FB0431F40AC0E12CDC
S11305A0F12C10E0512C612CC52DD62D972C9E0CCE
S11305B0E5CFDF91CF911F910F91FF90EF90DF90E6
S11305C0CF90BF90AF909F908F907F906F905F90EF
S11305D00895FC019C5F1192E817F907E1F708956B
S11305E0CF93DF93EC019C5F0E946F07CE010E94C2
S11305F0E902DF91CF910895BC019C5F0E94DF075F
S113060008950895FC0160831092B90080E28093FC
S1130610B8000895DC0184EA8093BC00ECEBF0E0C0
S113062090819923ECF79091B900987F11969C934F
S11306301197983011F09031B9F48C918093BB00EC
S113064084E88093BC00ECEBF0E090819923ECF714
S11306509091B900987F11969C93983139F081E07C
S1130660903429F480E0089581E0089580E00895AD
S1130670DC016093BB0084E88093BC00ECEBF0E009
S113068090819923ECF79091B900987F11969C93EF
S113069081E0983209F480E0089584E98093BC00F5
S11306A0ECEBF0E0808184FDFDCF08951F920F9262
S11306B00FB60F9211242F933F934F935F938F9311
S11306C09F93EF93FF938091880190918901019604
S11306D090938901809388014B9B1DC020918801D0
S11306E030918901E0918801F0918901F695E795AF
S11306F0F695E795F695E795EB5FFE4F40812770F9
S1130700332781E090E002C0880F991F2A95E2F711
S1130710842B808320C04091880150918901E0910D
S11307208801F0918901F695E795F695E795F69598
S1130730E795EB5FFE4F20814770552781E090E0FD
S113074002C0880F991F4A95E2F78095909530E092
S11307508223932380838091880190918901883E2C
S1130760934020F010928901109288012091880111
S1130770309189018091860190918701281739076A
S113078059F481E080938A011092890110928801C2
S11307901092870110928601FF91EF919F918F91A2
S11307A05F914F913F912F910F900FBE0F901F902B
S11307B01895CF93DF93CDB7DEB7C959D1090FB6DA
S11307C0F894DEBF0FBECDBFFE01ED57FF4F8AE0A8
S11307D0DF01282F1D922A95E9F73A97DF011D9230
S11307E08A95E9F78CE3FC97DF01282F1D922A955F
S11307F0E9F7FC97DF011D928A95E9F78BE891E010
S11308000E94E902E12C00E220E440E468E670E0A2
S11308108BE891E00E9497018BE891E00E94FC0232
S1130820BFEFEBE7F2E9B150E040F040E1F700C080
S113083000008BE891E00E94E9028BE891E00E94BD
S1130840FC0253985B9AE1E8F0E080818860808341
S1130850808182608083EFE6F0E080818260808323
S113086078948FEC97E0909389008093880010E04F
S1130870C756DF4F1882C959D040C956DF4F188276
S1130880C759D040CA56DF4F1882C659D040C856FF
S1130890DF4F1882C859D040CD56DF4F1882C35954
S11308A0D040C057DF4F1882C059D04024E6C1570A
S11308B0DF4F2883CF58D040412C512CCE0187588C
S11308C09F4FC357DF4F99838883CD58D040C35778
S11308D0DF4F9881CD58D040CF56DF4F9883C15910
S11308E0D040C257DF4FA881CE58D040CE56DF4FFC
S11308F0A883C259D040E9E7F0E0EC0FFD1F3A9617
S1130900CC56DF4FF983E883C459D040212C312CD5
S113091080918A018823E1F310928A018BE891E0A7
S11309200E94E90280910401882309F4AFC1C157F0
S1130930DF4FF881CF58D0408F2F90E04C01880CC6
S1130940991C880F991F880F991F880F991F880D6C
S1130950991D420121E0821A9108880E991E212FC7
S1130960C12CD12CEE24E394F12CA12CB12C6F2EAC
S1130970712C85010CC03FEFE31AF30A88E0E816F6
S1130980F10421F40F5F1F4FE22CF32C2B2DF801FF
S1130990EB5FFE4F808190E00E2C02C09595879509
S11309A00A94E2F7A82FA170BA2EC414D504B8F0A3
S11309B08C149D04A0F0211112C0AA23C1F0C60119
S11309C084199509B3010E942F08E3E8F0E0EC0FC5
S11309D0FD1FE60FF71F80818F5F808302C0BB205D
S11309E031F04E2D602F8BE891E00E941F02BFEF83
S11309F0CB1ADB0AE8EECE16E3E0DE0609F0BBCF45
S1130A001B2DCE0187589F4F4C01DE01AD57BF4FC0
S1130A107D01CF56DF4FA880C159D040CE56DF4F5D
S1130A20B880C259D04060E0712E6701D7018C9123
S1130A30882329F0F50180818F5F808302C0D5016E
S1130A401C921CE0160FF50181915F014FE3481BD6
S1130A500FE3212F8BE891E00E946F02D6011C92D4
S1130A60BFEFEB1AFB0A612F1837F9F6172DCF5693
S1130A70DF4FE881C159D040CE56DF4FF881C259CB
S1130A80D040C057DF4F9881C059D040CD56DF4F7A
S1130A903881C359D040CC56DF4F68817981C4591D
S1130AA0D0404E2FC357DF4F2881CD58D040421B32
S1130AB08191A9E7B0E0AC0FBD1FA90FB11D2C9126
S1130AC0281710F4392F942F381718F4891708F4BD
S1130AD0342FE617F70729F7C057DF4F9883C0591B
S1130AE0D040CD56DF4F3883C359D040092FC1576A
S1130AF0DF4F3881CF58D040343639F5892F90E014
S1130B00E9E7F0E0EC0FFD1FE80FF91F20812A3020
S1130B1008F4BCC024E6289F2001299F500C11240E
S1130B20CF56DF4FE881C159D040CE56DF4FF88110
S1130B30C259D040CC56DF4F88819981C459D040E6
S1130B4011928E179F07E1F708C0C157DF4F8881C4
S1130B50CF58D0408A3009F099C092013695279534
S1130B6036952795ABE7B4E10E9443087C01F694DF
S1130B70E7946E2D660F6E0D660F660F25E049E152
S1130B808BE891E00E943B029FEFE91AF90A6E2D6F
S1130B90660FE60E6E2D660F660F25E049E18BE8C1
S1130BA091E00E943B02C856DF4FA881C859D0404B
S1130BB0AF5FC856DF4FA883C859D040AE3170F13B
S1130BC0CF56DF4FE881C159D040CE56DF4FF88170
S1130BD0C259D040CC56DF4F88819981C459D04046
S1130BE011928E179F07E1F70E94A40820918801B3
S1130BF030918901280F311D309389012093880198
S1130C00C856DF4F1882C859D040B4E6C157DF4FE9
S1130C10B883CF58D040412C512C06C0EAE0C157CC
S1130C20DF4FE883CF58D040802F90E0E9E7F0E031
S1130C30EC0FFD1FE80FF91F20812A3038F19C01C9
S1130C40220F331F880F991F880F991F880F991F30
S1130C50820F931F0596480E591E509287014092A9
S1130C608601F401CC56DF4F88819981C459D04064
S1130C7011928E179F07E1F710920401F4E6C15711
S1130C80DF4FF883CF58D040412C512C8091040180
S1130C908111F0C0AA24A394B12CE12CF12C712C65
S1130CA0612CC12CD12C812C912CC7018C0105C045
S1130CB02FEFA21AB20A0F5F1F4F3FEFC31AD30AD6
S1130CC088E0C816D10409F0DEC09FEF891A990A9A
S1130CD0F401EB5FFE4F8081A82FA170FA2E80FFF4
S1130CE03CC0C22CD32C9801ADECBCEC0E94430850
S1130CF0969587959695879596958795AC01440F1B
S1130D00551F9C01220F331F220F331F220F331F45
S1130D10240F351FA801421B530B682F8BE891E069
S1130D200E941F020436110528F0083C110528F41E
S1130D30639409C0083C110530F00C32B1E01B0784
S1130D4030F473940CC00C32E1E01E0740F0043F11
S1130D50F1E01F0720F4E39402C0C22CD32C043F1B
S1130D6021E0120709F04CC034E5361568F4EDE3D0
S1130D70F0E0EC0FFD1FC956DF4F8881C759D04002
S1130D80E80FF11D91E09083A4E5A71568F4E1E074
S1130D90F0E0EC0FFD1FC956DF4FB881C759D040B2
S1130DA0EB0FF11D21E0208339EA3E1530F481E098
S1130DB0C756DF4F8883C959D040CA56DF4F988140
S1130DC0C659D04091115BC08DAD882309F457C03A
S1130DD08981882309F453C0C756DF4FA881C959B4
S1130DE0D040AA2309F44BC0C956DF4F1882C75913
S1130DF0D040B1E0CA56DF4FB883C659D0403FC097
S1130E00E8EEAE16E3E0BE0608F452CF1F2D23E051
S1130E104AE069E08BE891E00E943B0223E04AE06B
S1130E2063E18BE891E00E943B0223E04AE06DE13C
S1130E308BE891E00E943B0223E04AE061E38BE807
S1130E4091E00E943B02CA56DF4FF881C659D04058
S1130E50FF2381F0EE24E3940FE323E04CE360E00E
S1130E608BE891E00E949E0221E0C956DF4F28835F
S1130E70C759D0408BE891E00E94FC0249CDE12C97
S1130E80712C612C15CFF401EB5FFE4F808190E053
S1130E900C2C02C0959587950A94E2F7B82FB1708F
S1130EA0FB2E80FF5CCF1FCF8BE891E00E94F00205
S1130EB008951F93CF93DF93EC01162F0E940A032A
S1130EC060E0CE010E943803612FCE010E943803F6
S1130ED0CE010E944D03DF91CF911F910895CF93CE
S1130EE0DF93EC010E94010368E7CE010E94020334
S1130EF06EEACE010E94590765EDCE010E945907A2
S1130F0060E8CE010E94590768EACE010E945907A1
S1130F106FE3CE010E94590763EDCE010E94590789
S1130F2060E0CE010E94590760E4CE010E94590797
S1130F306DE8CE010E94590764E1CE010E94590771
S1130F4060E2CE010E94590760E0CE010E94590779
S1130F5061EACE010E94590768ECCE010E9459074C
S1130F606AEDCE010E94590762E1CE010E94590741
S1130F7061E8CE010E9459076FECCE010E94590727
S1130F8069EDCE010E94590761EFCE010E94590715
S1130F906BEDCE010E94590760E4CE010E9459070F
S1130FA064EACE010E94590766EACE010E945907FD
S1130FB06FEACE010E945907DF91CF910895CF9235
S1130FC0DF92EF92FF920F931F93CF93DF93082F3B
S1130FD0192F7B0161E20E94590760E0802F912F55
S1130FE00E9459076FE7802F912F0E94590762E2F0
S1130FF0802F912F0E94590760E0802F912F0E942B
S1131000590767E0802F912F0E945907E7018CEF61
S1131010F81A802F912F0E940A0360E4802F912FE9
S11310200E9438036E0180E1C80ED11C6991802FA3
S1131030912F0E943803CC15DD05C1F7802F912F25
S11310400E944D03E601CE14DF0419F7DF91CF911E
S11310501F910F91FF90EF90DF90CF900895AA1BFE
S1131060BB1B51E107C0AA1FBB1FA617B70710F08F
S1131070A61BB70B881F991F5A95A9F780959095C1
S1131080BC01CD010895A29FB001B39FC001A39FED
S1131090700D811D1124911DB29F700D811D1124AD
S11310A0911D0895EE0FFF1F0590F491E02D099412
S11310B08F929F92AF92BF92CF92DF92EF92FF9264
S11310C0CF93DF93EC01688179818A819B816115DB
S11310D071058105910521F464E279ED8BE597E0D2
S11310E02DE133EF41E050E00E94B40849015A0178
S11310F09B01AC01A7EAB1E40E94D3086B017C0117
S1131100ACEEB4EFA50194010E94E108DC01CB012F
S11311108C0D9D1DAE1DBF1DB7FF03C00197A10916
S1131120B04888839983AA83BB839F77DF91CF914B
S1131130FF90EF90DF90CF90BF90AF909F908F90F3
S113114008950E945808089580E091E00E9458088C
S11311500895A0E0B0E08093000190930101A09372
S11311600201B09303010895052E97FB1EF4009429
S11311700E94CB0857FD07D00E94E60807FC03D065
S11311804EF40C94CB0850954095309521953F4FE3
S11311904F4F5F4F089590958095709561957F4F5F
S11311A08F4F9F4F08950E944308A59F900DB49FB1
S11311B0900DA49F800D911D11240895B7FF0C94E8
S11311C0D3080E94D308821B930B0895A1E21A2E20
S11311D0AA1BBB1BFD010DC0AA1FBB1FEE1FFF1FD7
S11311E0A217B307E407F50720F0A21BB30BE40B27
S11311F0F50B661F771F881F991F1A9469F760956E
S11312007095809590959B01AC01BD01CF01089527
S1071210F894FFCF7C
S113121401000000017F0000000000000000000045
S113122400000000000000000000000000000000B6
S113123400000000000000000000000000000000A6
S11312440000000000000000000000000000000096
S11312540000000000000000000000000000000086
S11312640000000000000000000000000000000076
S11312740000000000000000000000000000000066
S11312840000000000000000000000000000000056
S109129400000000000050
S9030000FC
