:100000000C9425040C944D040C944D040C944D0454
:100010000C944D040C944D040C944D040C944D041C
:100020000C944D040C944D040C944D040C94A207B4
:100030000C944D040C944D040C944D040C944D04FC
:100040000C944D040C944D040C944D040C944D04EC
:100050000C944D040C944D040C944D040C944D04DC
:100060000C944D040C944D044C06060608060A0632
:100070000C060E06100612061406160618061A06B8
:100080001C061E06200622064A064A064A064A069C
:100090004A064A064A064A064A062406260628064C
:1000A0002A062C062E06300632064A064A064A065C
:1000B0004A064A064A064A064A064A064A064A06C0
:1000C0004A064A064A064A064A064A064A064A06B0
:1000D0004A064A064A064A064A064A0634063606CA
:1000E00038063A063C063E0640064A064A064A06D6
:1000F0004A064A064A064A064A064A064A064A0680
:100100004A064A064A064A064A064A064A064A066F
:100110004A064A064A064A064A064A06420644066D
:1001200046064806010000050B00071600052100E1
:10013000072C00073700014200044D000458000559
:100140006300056E00037900058400038F00059AA3
:100150000005A50006B00005BB0005C60006D100DD
:1001600005DC0005E70005F20005FD0005080103B8
:100170001301031E01052901053401053F01064A4B
:1001800001055501076001056B0105760105810137
:10019000058C0105970105A20105AD0105B8010512
:1001A000C30106CE0105D90105E40105EF0105FAF9
:1001B00001050502061002061B0205260207310290
:1001C000053C02074702075202075D020768020565
:1001D0007302047E02058902049402079F0205AAA5
:1001E0000203B50206C00205CB0205D60205E102F4
:1001F00005EC0205F702070203050D0305180304C9
:100200002303052E03053903054403054F03055A4F
:1002100003056503057003057B030586030591034C
:10022000059C0305A70307B20305BD0305C8030525
:10023000D30306DE0301E90306F40305FF03008090
:1002400080808080008080000000D8D8D8D800004E
:1002500000000000002828FE2828FE282800002092
:1002600078B0A07028A8F02020000060A4A6683C08
:1002700072920C000000304848306498C876000044
:100280000080808080000000000000003040C080BE
:10029000808080C0403000C020301010101030200E
:1002A000C00020A87070A8200000000000002020DE
:1002B00020F8202020000000000000000000604026
:1002C000C0800000000000F80000000000000000F6
:1002D00000000000E0E000000008101010202040A6
:1002E00040408000708888A8A8888870000000308E
:1002F000F03030303030FC000000708888087080AA
:1003000080F800000070880870080888F00000007D
:100310001838785898FC1818000000F88080F80801
:100320000888F0000000708880F0888888700000DD
:1003300000F808101020202060000000F888887065
:10034000888888F80000007088888878088870009D
:1003500000000000E0E00000E0E00000000000E03D
:10036000E000006040C0800000083040804030085D
:10037000000000000000F80000F80000000000800D
:100380006010081060800000007C44448438003015
:10039000300000007088B8A8A8A8B88078000010C5
:1003A000302828287C44C6000000F08888F088881F
:1003B00088F80000007088888080888878000000B5
:1003C000F0888888888888F0000000F88080F880AD
:1003D0008080F8000000F88080F880808080000035
:1003E0000070888880B8888870000000888888F845
:1003F00088888888000000F8202020202020F8002D
:10040000000038080808088888F00000008C90A0D8
:10041000C0A0B0908C000000C0C0C0C0C0C0C0F878
:1004200000000088C8D8D8E8A88888000000C8C89C
:10043000C8A8A8989898000000708888888888883C
:1004400070000000F8888888F880808000000070C4
:1004500088888888888870301C00F8888C88F89094
:10046000988C000000708880700808887000000078
:10047000FE10101010101010000000888888888866
:10048000888870000000C6444428282828100000EE
:1004900000828254746C6C6C44000000C6642810A6
:1004A000182844C6000000C6442828101010100068
:1004B0000000F8081020204080F8000000F0808044
:1004C000808080808080F00080404040202010109C
:1004D000100800F01010101010101010F00010286C
:1004E000284444C600000000000000000000000096
:1004F0000000F800C04040200000000000000000A4
:1005000000709018F898EC0000008080B0C88888CF
:1005100088F0000000000070888080887000000073
:10052000080878888888887800000000007088F8BB
:100530008088700000003820F86060606060000013
:100540000000003C484C78407C46FC008080B0C8ED
:10055000888888880000003000E020202020F800F3
:1005600000003000F0101010101010E000C0C0D8D3
:10057000F0E0E0D0C8000000E0202020202020F89B
:100580000000000000F8A8A8A8A8A800000000002B
:10059000B0C8888888880000000000708888888833
:1005A000700000000000B0C8888888F080800000DB
:1005B000007888888888780808000000F8C8C0C0DB
:1005C000C0C00000000000F880F008887000000043
:1005D0004040F840404060380000000000888888B3
:1005E0008898680000000000888850505020000063
:1005F0000000008254746C6C6C0000000000885095
:100600002020508800000000008888505050202092
:10061000C0000000F810306040F80000003C20608E
:100620003010E01020207C008080808080808080DE
:10063000808000F0101830201C201010F8000000FE
:10064000C8A8A8980000000000000007C000000033
:100650000000000FF00000000000003C3800000027
:10066000000000701C000000000000600E00000090
:10067000000000E007000000000001C003000000CF
:100680000000018003800000000003800180000062
:100690000000030001C000000000030000C00000D3
:1006A0000000060000C00000003FC6000067FC001C
:1006B00001FFFE0000FFFF8007C03FC003FC03C036
:1006C00007000FF81FF000E00C000C3EFC3000703B
:1006D0000C000C0FE030003018001C0FF030003818
:1006E0001800183E78300038180018781E180038A6
:1006F0001C0019E0079800300C001F8001F8003042
:100700000C001F0000F8007006003C00003800607C
:1007100006007800001E00E00300F000001F00C08B
:100720000381F000001F81C001C7B0038019C3809E
:1007300000CE3007E01CF70000FC300FE01C3E004C
:100740000078300FF01C1C000078300FF01C1C00EB
:1007500000FC300FE01C3E0000CE3007E01CF7002C
:1007600001C7B003C019C3800381F000001F81C01E
:100770000300F000001F00C006007800001E00E02B
:1007800006003C00003800600C001F0000F800303C
:100790000C001F8001F800301C0019E007980030A1
:1007A000180018F81E1800381800183E7C30001881
:1007B00018001C0FF03000381C000C07E03000302F
:1007C0000C000C3FFC3000300E000FF81FF00060F2
:1007D00007C03FC007F803E001FFFE0000FFFF80F5
:1007E000007FE6000067FE000000060000C0000079
:1007F0000000030000C000000000030001C0000072
:1008000000000380018000000000018003800000E0
:10081000000001C003000000000000E0070000002D
:10082000000000600E000000000000301C0000000E
:100830000000003C380000000000000FF000000045
:1008400000000007C0000000640C11241FBECFEFA1
:10085000D8E0DEBFCDBF11E0A0E0B1E0E4E3FCE111
:1008600002C005900D92AA3CB107D9F725E0AAEC89
:10087000B1E001C01D92A13DB207E1F714E0C5E26D
:10088000D4E004C02197FE010E94530DC432D10769
:10089000C9F70E9425080C94180E0C9400006623DA
:1008A000ACF1403498F52223C9F0242F26952695E3
:1008B000269550E8259F90011124260F311DFC013B
:1008C000E20FF31F477081E090E002C0880F991F8C
:1008D0004A95E2F79081892B80830895242F2695ED
:1008E0002695269530E8239FF0011124E60FF11D8F
:1008F000E80FF91F477081E090E002C0880F991F50
:100900004A95E2F7809590818923808308952F92FC
:100910003F924F925F926F927F928F929F92AF928F
:10092000BF92CF92DF92EF92FF920F931F93CF93DC
:10093000DF9300D01F92CDB7DEB7E22FF0E03796FD
:100940003F011AF437E0630E711C75946794759437
:10095000679475946794442309F44BC0422E5B015D
:100960006C01242E2E0C812C912C77240983312CA0
:1009700000E810E030C08F2D869586958695EA8137
:10098000FB81E80FF11DEA0DFB1D84919F2D9770EF
:10099000980102C0359527959A95E2F7E82FF0E087
:1009A000E223F323EF2B39F021E04E2D652DC60114
:1009B0000E944F0406C0232D4E2D652DC6010E94B6
:1009C0004F04F3945394F410D6CF8FEF881A980AFB
:1009D000E394E21471F04420C1F3869CF001879CFB
:1009E000F00D969CF00D1124FB83EA835980F32CC3
:1009F000C2CF0F900F900F90DF91CF911F910F9169
:100A0000FF90EF90DF90CF90BF90AF909F908F902E
:100A10007F906F905F904F903F902F900895662346
:100A2000CCF04034B8F4242F26952695269530E84E
:100A3000239FF0011124E60FF11DE80FF91F477005
:100A400081E090E002C0880F991F4A95E2F79081FB
:100A5000892B80830895FF920F931F93CF93DF9389
:100A6000222369F0C42FF62E8C01D22FD40F4C2FE5
:100A70006F2DC8010E940F05CF5FCD13F8CFDF9116
:100A8000CF911F910F91FF900895FF920F931F93A5
:100A9000CF93DF93222369F0F42EC62F8C01D22F3F
:100AA000D60F4F2D6C2FC8010E940F05CF5FCD13BD
:100AB000F8CFDF91CF911F910F91FF900895CF92C2
:100AC000DF92EF92FF920F931F93CF93DF93EC018E
:100AD000F62E142FD22EE22EE61AE394C02EC41A5C
:100AE0002E2D0E9445052E2D402F6F2DCE010E94E8
:100AF00045052C2D412F6F2DCE010E942B052C2D4D
:100B0000412F6D2DCE010E942B05DF91CF911F91BA
:100B10000F91FF90EF90DF90CF900895FC019C5FC4
:100B20001192E817F907E1F70895CF93DF93EC01ED
:100B30009C5F0E947F0CCE010E948E05DF91CF91B9
:100B40000895BC019C5F0E94EF0C08950895FC017C
:100B500060831092B90080E28093B8000895DC01B0
:100B600084EA8093BC00ECEBF0E090819923ECF7F1
:100B70009091B900987F11969C931197983011F03D
:100B80009031B9F48C918093BB0084E88093BC00D1
:100B9000ECEBF0E090819923ECF79091B900987F0D
:100BA00011969C93983139F081E0903429F480E0DB
:100BB000089581E0089580E00895DC016093BB0012
:100BC00084E88093BC00ECEBF0E090819923ECF793
:100BD0009091B900987F11969C9381E0983209F426
:100BE00080E0089584E98093BC00ECEBF0E0808124
:100BF00084FDFDCF089590E0FC01B197EE35F1053D
:100C000008F048C0EC5CFF4F0C94530D81E0089550
:100C100082E0089583E0089584E0089585E00895D2
:100C200086E0089587E0089588E0089589E00895B2
:100C30008AE008958BE008958CE008958DE0089592
:100C40008EE008958FE0089589E108958AE108957E
:100C50008BE108958CE108958DE108958EE108956A
:100C60008FE1089580E208958AE308958BE3089563
:100C70008CE308958DE308958EE308958FE308953E
:100C800080E408958AE508958BE508958CE508953C
:100C90008DE508958EE1089580E008952F923F92AA
:100CA0004F925F926F927F928F929F92AF92BF927C
:100CB000CF92DF92EF92FF920F931F93CF93DF9328
:100CC00000D000D0CDB7DEB75C017A836983142FE2
:100CD000222EE02E2DB73EB73C832B83FB010190E3
:100CE0000020E9F73197CF01861B970BF82E992743
:100CF000EDB7FEB7E81BF90B0FB6F894FEBF0FBEB9
:100D0000EDBF2DB73EB72F5F3F4F290111823296BD
:100D10008130910531F0820F931F1192E817F90786
:100D2000E1F7FF2009F4A1C089809A80042DC42C2A
:100D3000D52C312CD4018D914D01803221F4F50157
:100D40008381380E34C09FEB980F9A3120F49FEDC9
:100D5000980FD6019C939FE9980F9A3120F49FED4C
:100D6000980FF601908390ED980F9A3020F49FED44
:100D7000980FD6019C933601F6019081911104C021
:100D80000E94FB05D6018C93D301EC91F0E0CF01DA
:100D9000880F991FE80FF91FD50114968D919C912A
:100DA0001597E80FF91FE491339433943E0EBFEF8B
:100DB000CB1ADB0A8C2D801B8F1508F4BBCFE1E02A
:100DC000EE1649F0EE1620F0F2E0EF1649F00AC0F8
:100DD00010E008C0312C369410E4131903C0312CF4
:100DE00010E81319FF2009F44BC039803201832C1D
:100DF0009A80D4018D914D01803221F4F5018381D7
:100E0000180F2AC0D301CC908C2D90E06C01CC0C33
:100E1000DD1CC80ED91ED5011496ED91FC911597D5
:100E2000EC0DFD1D2491319685919491F50166811B
:100E30007781680F791FE22C012F40818FEC91E0C0
:100E40000E948704D5011496ED91FC911597EC0D45
:100E5000FD1DE4911E5F1E0FBFEF6B1A7B0A882DEC
:100E600083198F1508F4C5CF0BC0E1E0EE1609F425
:100E7000B1CFEE1608F4ACCFF2E0EF1609F4AFCF25
:100E80002B813C810FB6F8943EBF0FBE2DBF0F9053
:100E90000F900F900F90DF91CF911F910F91FF90C6
:100EA000EF90DF90CF90BF90AF909F908F907F900A
:100EB0006F905F904F903F902F900895FC016436A3
:100EC00080F480E2808389E2689F812D11248295DD
:100ED0008F70962F24E6829F901911249A3068F41F
:100EE00009C089E2689F812D112482958F70805DF1
:100EF000808303C080E2818315C099E2699F912DB0
:100F0000112492959F70862F24E6929F80191124B8
:100F1000982F8DEC989F912D1124969596959695E6
:100F2000905D91839DEC699F912D112496959695E6
:100F30009695990F892F880F880F980F691B605D10
:100F4000628308951F920F920FB60F9211242F9370
:100F50003F934F935F938F939F93EF93FF93809172
:100F6000CC019091CD0101969093CD018093CC015D
:100F70004B9B1DC02091CC013091CD01E091CC0163
:100F8000F091CD01F695E795F695E795F695E795FD
:100F9000EB5FFE4F40812770332781E090E002C075
:100FA000880F991F2A95E2F7842B808320C04091F7
:100FB000CC015091CD01E091CC01F091CD01F6959D
:100FC000E795F695E795F695E795EB5FFE4F20815F
:100FD0004770552781E090E002C0880F991F4A951D
:100FE000E2F78095909530E082239323808380916F
:100FF000CC019091CD01883E934020F01092CD011C
:101000001092CC012091CC013091CD018091CA0188
:101010009091CB012817390759F481E08093CE01D4
:101020001092CD011092CC011092CB011092CA0106
:10103000FF91EF919F918F915F914F913F912F91F0
:101040000F900FBE0F901F901895CF93DF93CDB7E1
:10105000DEB7CF59D1090FB6F894DEBF0FBECDBFB2
:10106000FE01ED57FF4F8AE0DF01282F1D922A95E0
:10107000E9F73A97DF011D928A95E9F78CE3FC972F
:10108000DF01282F1D922A95E9F7FC97DF011D92B9
:101090008A95E9F780E290E2A0E2B0E0C357DF4F23
:1010A00088839983AA83BB83CD58D0408FEC91E08D
:1010B0000E948E05E12C00E220E440E468E476E042
:1010C0008FEC91E00E9487048FEC91E00E94A105D3
:1010D000BFEFEBE7F2E9B150E040F040E1F700C0CC
:1010E00000008FEC91E00E948E058FEC91E00E9451
:1010F000A10553985B9AE1E8F0E0808188608083E5
:10110000808182608083EFE6F0E08081826080836E
:1011100078948FEC97E0909389008093880010E09A
:10112000C156DF4F1882CF59D040C256DF4F1882C8
:10113000CE59D040CA56DF4F1882C659D040C35648
:10114000DF4F1882CD59D040C656DF4F1882CA599A
:10115000D040C956DF4F1882C759D04024E6CB563D
:10116000DF4F2883C559D040412C512CCE018758E0
:101170009F4FCF56DF4F99838883C159D040CF56B8
:10118000DF4F9881C159D040C856DF4F9883C85966
:10119000D040CE56DF4FA881C259D040C756DF4F4E
:1011A000A883C959D040E9E7F0E0EC0FFD1F3A965B
:1011B000C556DF4FF983E883CB59D040212C312C21
:1011C0008091CE018823E1F31092CE018FEC91E063
:1011D0000E948E0580910401882309F4FBC109E176
:1011E00021E74CE06AE08FEC91E00E945F050CE0A3
:1011F0004BE2602F8FEC91E00E940F050E5F0037ED
:10120000B9F7CB56DF4FF881C559D040F43651F4C9
:1012100001E020E04FE36DE871E085E891E00E9495
:101220004E06FBC2CB56DF4F2881C559D0402A302D
:1012300009F0F3C201E020E04FE36CE971E085E8DA
:1012400091E00E944E0608E221E74FE16AE08FEC50
:1012500091E00E945F0564E1C356DF4F8881CD595C
:10126000D040681BCE0183579F4F0E945E0702E06B
:1012700020E04FE7BE0163577F4F85E891E00E9471
:101280004E06CBC29FEFC91AD90AA8E0CA16D104EC
:1012900029F4BFEFAB1ABB0AC22CD32C7394212FB5
:1012A000F501EB5FFE4F808190E00C2C02C095951C
:1012B00087950A94E2F7182F1170E414F50448F1A9
:1012C0008E149F0430F1211118C0112309F444C079
:1012D000C70184199509CD56DF4F68817981C359BB
:1012E000D0400E943F0DE3E8F0E0EC0FFD1FE60F59
:1012F000F71F80818F5F808302C0112369F10A305C
:1013000051F426E041E2672D8FEC91E00E942B051D
:1013100002C0112309F19701ADECBCEC0E94590DFC
:10132000969587959695879596958795AC01440FE8
:10133000551F9C01220F331F220F331F220F331F13
:10134000240F351FA701421B530B425F6CE0680F4F
:101350008FEC91E00E940F05EFEFEE1AFE0AF8EE17
:10136000EF16F3E0FF0609F08DCF84C26701D701C5
:101370008C91882329F0F50180818F5F808302C0E2
:10138000D5011C921AE0160FF50141915F014195BC
:10139000440F415C0FE3212F8FEC91E00E945F0529
:1013A000D6011C92BFEFEB1AFB0A612F1037F1F642
:1013B000172DC856DF4FE881C859D040C756DF4FB8
:1013C000F881C959D040C956DF4F9881C759D040DC
:1013D000C656DF4F3881CA59D040C556DF4F6881A5
:1013E0007981CB59D0404E2FCF56DF4F2881C1593C
:1013F000D040421B8191A9E7B0E0AC0FBD1FA90FFF
:10140000B11D2C91281710F4392F942F381718F488
:10141000891708F4342FE617F70729F7C956DF4F65
:101420009883C759D040C656DF4F3883CA59D04039
:10143000092FCB56DF4F8881C559D040843639F506
:10144000892F90E0E9E7F0E0EC0FFD1FE80FF91FAE
:1014500020812A3008F4BEC024E6289F2001299F5D
:10146000500C1124C856DF4FE881C859D040C756E8
:10147000DF4FF881C959D040C556DF4F8881998127
:10148000CB59D0401192E817F907E1F708C0CB56C5
:10149000DF4F9881C559D0409A3009F09BC0920126
:1014A0003695279536952795ABE7B4E10E94590DFF
:1014B0007C01F694E7946E2D660F862F880F880FB7
:1014C000680F645F25E049E18FEC91E00E942B05F5
:1014D000AFEFEA1AFA0AEE0C6E2D660F660F6E0D6C
:1014E000645F25E049E18FEC91E00E942B05C35633
:1014F000DF4FB881CD59D040BF5FC356DF4FB883AF
:10150000CD59D040B43170F1C856DF4FE881C85989
:10151000D040C756DF4FF881C959D040C556DF4F7C
:1015200088819981CB59D0401192E817F907E1F7EA
:101530000E94B40D2091CC013091CD01280F311DB6
:101540003093CD012093CC01C356DF4F1882CD5983
:10155000D040E4E6CB56DF4FE883C559D040412C5C
:10156000512C06C0FAE0CB56DF4FF883C559D04066
:10157000802F90E0E9E7F0E0EC0FFD1FE80FF91F86
:1015800020812A3038F19C01220F331F880F991FC8
:10159000880F991F880F991F820F931F0596480E79
:1015A000591E5092CB014092CA01F401C556DF4F3B
:1015B00088819981CB59D0401192E817F907E1F75A
:1015C0001092040124E6CB56DF4F2883C559D04042
:1015D000412C512C8091040181111AC1CA56DF4F50
:1015E0008881C659D04081110AC001E020E04FE354
:1015F0006AEA71E085E891E00E944E0609C001E0C8
:1016000020E04FE36AEB71E085E891E00E944E062E
:1016100009E121E74CE06AE08FEC91E00E945F0570
:1016200023E049E166E18FEC91E00E942B0523E085
:1016300049E160E28FEC91E00E942B0523E049E153
:101640006AE28FEC91E00E942B0523E049E16EE312
:101650008FEC91E00E942B05AA24A394B12CE12CDD
:10166000F12C712C612CC12CD12C812C912CC70117
:101670008C0105C09FEFA91AB90A0F5F1F4FAFEF8A
:10168000CA1ADA0AB8E0CB16D10409F00CC1EFEFA0
:101690008E1A9E0AF401EB5FFE4F8081F82FF170E5
:1016A000FF2E80FF3EC0C22CD32C9801ADECBCECC9
:1016B0000E94590D9695879596958795969587954D
:1016C000AC01440F551F9C01220F331F220F331F03
:1016D000220F331F240F351FA801421B530B425FFB
:1016E0006CE0680F8FEC91E00E940F050436110545
:1016F00028F0083C110528F4639409C0083C110542
:1017000030F00C3221E0120730F473940CC00C322C
:1017100081E0180740F0043F91E0190720F4E394BA
:1017200002C0C22CD32C043FA1E01A0709F04CC020
:10173000B4E5B61568F4EDE3F0E0EC0FFD1FC2561A
:10174000DF4F2881CE59D040E20FF11D81E0808328
:1017500094E5971568F4E1E0F0E0EC0FFD1FC25648
:10176000DF4FA881CE59D040EA0FF11DB1E0B08320
:10177000E9EAEE1530F4F1E0C156DF4FF883CF59B6
:10178000D040CA56DF4F2881C659D040211187C0AA
:101790008DAD882309F483C08981882309F47FC033
:1017A000C156DF4F8881CF59D040882309F477C0D4
:1017B000C256DF4F1882CE59D04091E0CA56DF4F53
:1017C0009883C659D0406BC0A8EEAA16A3E0BA060B
:1017D00008F450CF1F2DCA56DF4FB881C659D040EC
:1017E000BB23B1F061E0CE0183579F4F0E945E079B
:1017F00002E020E040E8BE0163577F4F85E891E0BA
:101800000E944E06E1E0C256DF4FE883CE59D04039
:101810008FEC91E00E94A105D3CCCB56DF4FF8812D
:10182000C559D0408F2F90E04C01880C991C880F2F
:10183000991F880F991F880F991F880D991D4201C4
:1018400021E0821A9108880E991E0CE00419212FBC
:10185000E12CF12CCC24C394D12CA12CB12C6F2ED3
:10186000712CCD56DF4F79826882C359D040702EDB
:101870000F2F16CDCE0187589F4F4C01DE01AD577B
:10188000BF4F7D01C856DF4FA880C859D040C7560A
:10189000DF4FB880C959D0406CE0712E67CDE12C84
:1018A000712C612CE7CEF401EB5FFE4F808190E05C
:1018B0000C2C02C0959587950A94E2F7B82FB17069
:1018C000FB2E80FF30CFF1CE8FEC91E00E9495058A
:1018D00008951F93CF93DF93EC01162F0E94AF055D
:1018E00060E0CE010E94DD05612FCE010E94DD0582
:1018F000CE010E94F205DF91CF911F910895CF9301
:10190000DF93EC010E94A60568E7CE010E94A705BF
:101910006EEACE010E94690C65EDCE010E94690C51
:1019200060E8CE010E94690C68EACE010E94690C51
:101930006FE3CE010E94690C63EDCE010E94690C39
:1019400060E0CE010E94690C60E4CE010E94690C47
:101950006DE8CE010E94690C64E1CE010E94690C21
:1019600060E2CE010E94690C60E0CE010E94690C29
:1019700061EACE010E94690C68ECCE010E94690CFC
:101980006AEDCE010E94690C62E1CE010E94690CF1
:1019900061E8CE010E94690C6FECCE010E94690CD7
:1019A00069EDCE010E94690C61EFCE010E94690CC5
:1019B0006BEDCE010E94690C60E4CE010E94690CBF
:1019C00064EACE010E94690C66EACE010E94690CAD
:1019D0006FEACE010E94690CDF91CF910895CF92FA
:1019E000DF92EF92FF920F931F93CF93DF93082F15
:1019F000192F7B0161E20E94690C60E0802F912F1A
:101A00000E94690C6FE7802F912F0E94690C62E29F
:101A1000802F912F0E94690C60E0802F912F0E94EF
:101A2000690C67E0802F912F0E94690CE7018CEF11
:101A3000F81A802F912F0E94AF0560E4802F912F1C
:101A40000E94DD056E0180E1C80ED11C6991802FD6
:101A5000912F0E94DD05CC15DD05C1F7802F912F58
:101A60000E94F205E601CE14DF0419F7DF91CF9151
:101A70001F910F91FF90EF90DF90CF900895AA1BD8
:101A8000BB1B51E107C0AA1FBB1FA617B70710F069
:101A9000A61BB70B881F991F5A95A9F7809590959B
:101AA000BC01CD010895EE0FFF1F0590F491E02DCC
:101AB0000994A29FB001B39FC001A39F700D811D27
:101AC0001124911DB29F700D811D1124911D089547
:101AD0008F929F92AF92BF92CF92DF92EF92FF923E
:101AE000CF93DF93EC01688179818A819B816115B5
:101AF00071058105910521F464E279ED8BE597E0AC
:101B00002DE133EF41E050E00E94C40D49015A013C
:101B10009B01AC01A7EAB1E40E94E30D6B017C01DB
:101B2000ACEEB4EFA50194010E94F10DDC01CB01F4
:101B30008C0D9D1DAE1DBF1DB7FF03C00197A109F0
:101B4000B04888839983AA83BB839F77DF91CF9125
:101B5000FF90EF90DF90CF90BF90AF909F908F90CD
:101B600008950E94680D089580E091E00E94680D3C
:101B70000895A0E0B0E08093000190930101A0934C
:101B80000201B09303010895052E97FB1EF4009403
:101B90000E94DB0D57FD07D00E94F60D07FC03D015
:101BA0004EF40C94DB0D50954095309521953F4FA8
:101BB0004F4F5F4F089590958095709561957F4F39
:101BC0008F4F9F4F08950E94590DA59F900DB49F70
:101BD000900DA49F800D911D11240895B7FF0C94C2
:101BE000E30D0E94E30D821B930B0895A1E21A2ED0
:101BF000AA1BBB1BFD010DC0AA1FBB1FEE1FFF1FB1
:101C0000A217B307E407F50720F0A21BB30BE40B00
:101C1000F50B661F771F881F991F1A9469F7609547
:101C20007095809590959B01AC01BD01CF01089501
:041C3000F894FFCF56
:101C340001000000017F000000000000000000001F
:101C44000000000000000000000000000000000090
:101C54000000000000000000000000000000000080
:101C64000000000000000000000000000000000070
:101C74000000000000000000000000000000000060
:101C84000000000000000000000000000000000050
:101C94000000000000000000000000000000000040
:101CA4000000000000000000000000000000000030
:101CB40000000000000B217E0224013E02536561F6
:101CC400726368203A203130306D7300536561725D
:101CD4006368203A2031306D73004D696E206D6168
:101CE400726B20736561726368004D696E206D616B
:0A1CF400726B20666F756E640000CD
:00000001FF
