:100000000C94850B0C94AD0B0C94AD0B0C94AD0BB8
:100010000C94AD0B0C94AD0B0C94AD0B0C94AD0B80
:100020000C94AD0B0C94AD0B0C94AD0B0C94020F17
:100030000C94AD0B0C94AD0B0C94AD0B0C94AD0B60
:100040000C94AD0B0C94AD0B0C94AD0B0C94AD0B50
:100050000C94AD0B0C94AD0B0C94AD0B0C94AD0B40
:100060000C94AD0B0C94AD0BAC0D660D680D6A0DC8
:100070006C0D6E0D700D720D740D760D780D7A0D80
:100080007C0D7E0D800D820DAA0DAA0DAA0DAA0D64
:10009000AA0DAA0DAA0DAA0DAA0D840D860D880D14
:1000A0008A0D8C0D8E0D900D920DAA0DAA0DAA0D24
:1000B000AA0DAA0DAA0DAA0DAA0DAA0DAA0DAA0D88
:1000C000AA0DAA0DAA0DAA0DAA0DAA0DAA0DAA0D78
:1000D000AA0DAA0DAA0DAA0DAA0DAA0D940D960D92
:1000E000980D9A0D9C0D9E0DA00DAA0DAA0DAA0D9E
:1000F000AA0DAA0DAA0DAA0DAA0DAA0DAA0DAA0D48
:10010000AA0DAA0DAA0DAA0DAA0DAA0DAA0DAA0D37
:10011000AA0DAA0DAA0DAA0DAA0DAA0DA20DA40D35
:10012000A60DA80D0B1615161F16291633163D160B
:1001300047160300000914000B3C000964000B8CF7
:10014000000CB40003DC0006F0000604010B1801EB
:100150000B40010568010B7C0105A40109B8010BE6
:10016000E0010A08020B30020B58020C80020BA8B7
:10017000020BD0020BF8020B20030B48030570039F
:100180000584030998030BC00309E8030B10040955
:1001900038040B60040A88040BB0040AD8040A006F
:1001A000050A28050B500509780509A0050AC805A8
:1001B0000AF0050818060B2C060954060B7C060AE3
:1001C000A4060BCC060AF4060B1C070B4407096CAB
:1001D000070B94070DBC070DE4070D0C080B340842
:1001E000065C080970080698080BAC080BD40806D2
:1001F000FC080C100909380909600909880909B0C7
:10020000090BD8090B000A09280A09500A09780ABB
:1002100009A00A09C80A0BF00A09180B09400B09C2
:10022000680B09900B08B80B0ACC0B0AF40B091CDD
:100230000C0B440C0B6C0C0B940C0BBC0C09E40C5D
:10024000090C0D01340D09480D0B700D00E0E0E0C4
:10025000E0E0404040400000E0E0E0E0000000005E
:100260000000E380E380E380E380E3006300630059
:10027000000000000000000000000000000000007E
:1002800000000000000000000000198011801180B3
:100290001180FFE0FFE03180318031003100FFE06C
:1002A000FFE03100310033000000000000000000DA
:1002B000080008007E00FF80C9008800C800F80020
:1002C0003E000F8009800880C980FF803F00080041
:1002D000080000000000000000007000F800882006
:1002E000886088C0F980730006001DC03BE0622072
:1002F000C220822003E001C00000000000000000D6
:1003000000001E003F0073006300630026003C00F5
:100310007040D8E0CCC087808300C7E0FEF0783022
:10032000000000000000000000E0E0E0E0E0E0602D
:1003300000000000000000000000000000041C3865
:100340007060C0C0C0C0C0C0C0C0C06070381C04F5
:100350000080E07038180C0C0C0C0C0C0C0C0C18F9
:100360003870E08000000E008C40C4E0F5E03F8073
:100370000E003F80F5E0C4408C400E0000000000FD
:10038000000000000000000000000000000000006D
:10039000000004000400040004000400FFE0FFE08B
:1003A0000400040004000400040000000000000039
:1003B000000000000000000000000000000000003D
:1003C00078707060E0E0C0C0000000000000000035
:1003D0000000000000000000FFE0FFE0000000005F
:1003E000000000000000000000000000000000000D
:1003F00000000000000000000000000070F8F8702D
:1004000000000000000001800180030003000600DE
:10041000060006000C000C00180018001800300040
:100420003000600060006000C000C00000001F00DD
:100430003F8071C060C0C060C060CE60CE60CE60E2
:10044000C060C06060C071C03F801F00000000003D
:100450000000000000000C001C00FC00EC000C0080
:100460000C000C000C000C000C000C000C000C002C
:10047000FFC0FFC0000000000000000000001F00DF
:100480007FC060C060C0404000C000C00FC03F00DF
:1004900078006000C000C000FFE0FFE00000000046
:1004A0000000000000001F007FC060C060C000C0EE
:1004B00000C00F800F0000C000600060C060E0C09E
:1004C0007FC03F80000000000000000000000380AB
:1004D000078007800D801D801980318061806180D8
:1004E000FFF0FFF00180018001800180000000002A
:1004F0000000000000007FC07FC06000600060005E
:1005000060007F807FC000C00060C060C060E0C04D
:100510007FC03F00000000000000000000001F003E
:100520003FC060C060C0C000C000CF80FFC0E0C05E
:10053000C060C060406060C03FC01F00000000009D
:10054000000000000000FFE0FFE000C000C00180EC
:100550000180030003000600060006000C000C00EA
:100560000C000C00000000000000000000003F80B4
:100570007FC060C060C060C060C01F003F8060C0BE
:10058000C060C060C06060C07FC03F8000000000ED
:100590000000000000001F007FC060C0C040C060BD
:1005A000C06060E07FE03E600060006060C060C0EE
:1005B0007F801F000000000000000000000000001D
:1005C0000070F8F87000000070F8F870000000008B
:1005D000000000000070F8F8700000007870706093
:1005E000E0C0C08000000000000000800180070023
:1005F0001E003800E0008000E00038001E00070008
:1006000001800080000000000000000000000000E9
:100610000000000000000000FFE0FFE0000000001C
:100620000000FFE0FFE0000000000000000000000C
:10063000000000000000000000008000C00070000A
:100640003C000E000380008003800E003C00700020
:10065000C0008000000000000000000000003F809B
:100660007FC0E0E0C060C060006001E00F800E006D
:10067000000000001C001C001C001C00000000000A
:100680000000000000003E007F00C180C0808E801E
:100690009F80998098809880988098809F808F0014
:1006A000C000E0007F801F800000000000000E00FE
:1006B0000E000A001B001B001100318031803180C8
:1006C0007FC07FC060C0C060C060C060000000002C
:1006D000000000000000FE00FF80C180C180C180DA
:1006E000C180FF00FF00C180C0C0C0C0C0C0C1C089
:1006F000FF80FF00000000000000000000001F80DD
:100700003FC060E06060C060C000C000C000C000CA
:10071000C000C060606060E03FC01F80000000005B
:10072000000000000000FE00FF00C380C180C0C0C8
:10073000C0C0C0C0C0C0C0C0C0C0C0C0C180C38035
:10074000FF00FE0000000000000000000000FFC0ED
:10075000FFC0C000C000C000C000FF80FF80C0001C
:10076000C000C000C000C000FFC0FFC0000000000B
:10077000000000000000FFC0FFC0C000C000C000BB
:10078000C000C000FF00FF00C000C000C000C000EB
:10079000C000C000000000000000000000001F00BA
:1007A0003FC060C060C0C060C000C000C000C7E003
:1007B000C7E0C060606060E03FC01F000000000054
:1007C000000000000000C180C180C180C180C180E4
:1007D000C180FF80FF80C180C180C180C180C18095
:1007E000C180C18000000000000000000000FF8008
:1007F000FF80080008000800080008000800080042
:100800000800080008000800FF80FF8000000000CA
:1008100000000000000007C007C000C000C000C00A
:1008200000C000C000C000C000C0C0C0C0C0E1C067
:100830007F803F0000000000000000000000C0C0FA
:10084000C180C300C600CC00D800F000F000D80082
:10085000CC00CE00C700C300C180C0C000000000B3
:100860000000000000C0C0C0C0C0C0C0C0C0C0C048
:10087000C0C0FFFF000000000000E0E0E0E0F0E0AA
:10088000F1E0F1E0D160DB60DB60CA60CE60CE6099
:10089000C060C060C060C0600000000000000000D8
:1008A0000000C180E180E180B180B18099809980B1
:1008B00099808D808D8087808780878083808380EA
:1008C000000000000000000000001F003F8060C02A
:1008D00060C0C060C060C060C060C060C060C06018
:1008E00060C060C03F801F000000000000000000EA
:1008F0000000FF00FF80C1C0C0C0C0C0C0C0C0C0F9
:10090000C1C0FF80FF00C000C000C000C000C00028
:10091000000000000000000000001F003FC060C099
:1009200060C0C060C060C060C060C060C060C060C7
:1009300060C060C03F801F000600030003E000E0CD
:100940000000FF00FF80C0C0C0C0C0C0C0C0C0C0A9
:10095000C0C0FF80FF00C600C300C300C180C0C08C
:10096000000000000000000000001F007FC061E0E8
:10097000C040600070003F000FC001C00060006018
:100980004060E0C07FC01F000000000000000000C9
:100990000000FFE0FFE00400040004000400040085
:1009A0000400040004000400040004000400040027
:1009B00000000000000000000000C180C180C18074
:1009C000C180C180C180C180C180C180C180C1801F
:1009D000C180E3807F003E000000000000000000B6
:1009E0000000C060C060C06060C060C060C0318096
:1009F000318031801B001B001B000A000E000E001E
:100A000000000000000000000000C018C0184010E6
:100A1000601067306730653065306DB02DA028A05C
:100A200028A038E038E0306000000000000000003E
:100A3000000060383030386018C00CC00D800700EE
:100A4000070007000D8018C018C030606030E03823
:100A500000000000000000000000E018603030607E
:100A6000306018C018C00D800F800700020002001F
:100A7000020002000200020000000000000000006E
:100A80000000FFE0FFE000C00180038003000600DB
:100A90000E000C001800300070006000FFE0FFE066
:100AA000000000000000000000FCFCC0C0C0C0C08E
:100AB000C0C0C0C0C0C0C0C0C0C0FCFC0000C000FE
:100AC000C0006000600060003000300018001800B6
:100AD00018000C000C0006000600060003000300CE
:100AE0000180018000FCFC0C0C0C0C0C0C0C0C0CA0
:100AF0000C0C0C0C0C0CFCFC00000E000E001B007F
:100B00001B0011003180308060C060C0C060C060D8
:100B100000000000000000000000000000000000D5
:100B200000000000000000000000000000000000C5
:100B300000000000000000000000000000000000B5
:100B400000000000FFE0FFE000F0703838181C0CD7
:100B50000000000000000000000000000000000095
:100B60000000000000003F007F806180C1800180A4
:100B70003F807F80C180C1C07FF03C7000000000DA
:100B8000000000000000C000C000C000C000CF0096
:100B9000DF80E180C180C180C180C180C180C1800F
:100BA000FF007E00000000000000000000000000C8
:100BB0000000000000003E007F80C180C080C000B7
:100BC000C000C000C000C1807F803F000000000066
:100BD00000000000000001800180018001803F8052
:100BE0007F80C180C180C180C180C180C180C3803D
:100BF000FF8079800000000000000000000000007D
:100C00000000000000003E007F00C180C180FF8026
:100C1000FF80C000C000C1807F803E000000000057
:100C200000000000000007C00FE00C000C00FFC037
:100C3000FFC00C000C000C000C000C000C000C00A1
:100C40000C000C000000000000000000000000008C
:100C50000000000000003FE07FE061806080618074
:100C60003F807F00C000C0007FC07FE0C060C060E8
:100C7000FFE07FC00000C000C000C000C000CF0087
:100C8000DF80E180C180C180C180C180C180C1801E
:100C9000C180C18000000000000000001E001E0096
:100CA000000000000000F800F8000800080008003C
:100CB0000800080008000800FF80FF800000000016
:100CC0000000000007800780000000000000FE0018
:100CD000FE000600060006000600060006000600EC
:100CE0000600060006000600FE00F8000000C00036
:100CF000C000C000C000C380C600CC00D800F00017
:100D0000F800D800CC00CE00C600C3800000000070
:100D1000000000000000F800F800080008000800CB
:100D20000800080008000800080008000800080083
:100D3000FF80FF80000000000000000000000000B5
:100D4000000000000000DCC0FDE0EE60C660C46092
:100D5000C460C460C460C460C460C46000000000BB
:100D60000000000000000000000000000000DF00A4
:100D7000FF80E180C180C180C180C180C180C1800D
:100D8000C180C180000000000000000000000000E1
:100D90000000000000003E007F00C180C180C180D3
:100DA000C180C180C180C1807F003E000000000082
:100DB0000000000000000000000000000000CF0064
:100DC000FF80E180C180C180C180C180C180C180BD
:100DD000FF00FE00C000C000C000C0000000000016
:100DE0000000000000003F007F80E180C180C180E2
:100DF000C180C180C180C380FD8079800180018075
:100E0000018001800000000000DEFFE3C1C1C0C01E
:100E1000C0C0C0C0000000000000000000000000D2
:100E200000001F007FC0608060007F001FC000C006
:100E300000C040C0FFC01F00000000000000000014
:100E400000001800180018001800FFC0FFC01800AC
:100E5000180018001800180018001C000FC007C068
:100E60000000000000000000000000000000000082
:100E70000000C180C180C180C180C180C180C180AB
:100E8000C180C380FF807980000000000000000066
:100E900000000000000000000000C06060C060C0F2
:100EA00020803180318019001B001B000E000E00D5
:100EB0000000000000000000000000000000000032
:100EC00000008020C060CE60CE60CA604A405B40B7
:100ED0007BC071C071C031800000000000000000C4
:100EE0000000000000000000000060E03180318060
:100EF0001B000E000E000E001B0031803180E0E070
:100F000000000000000000000000000000000000E1
:100F10000000C06060C060C0308031803180190046
:100F20001B001B000E000E0006000C007800F000F5
:100F300000000000000000000000FF80FF800300B0
:100F400006000E001C00380070006000FF80FF806B
:100F5000000000000000000000000F803F80300013
:100F60003000300018000C000C001C00E0001800DD
:100F70000C000C0018003000300030003F800F8063
:100F800000808080808080808080808080808080E1
:100F9000808080800000F800FE0006000600060049
:100FA0000C00180018001C0003800C00180018002A
:100FB0000C00060006000600FE00F800000000001D
:100FC00000000000000078607C60CC60CE60C660ED
:100FD000C7E0C3C0000000000000000000000000E7
:100FE00000000000010000050B00071600052100AD
:100FF000072C00073700014200044D00045800058B
:101000006300056E00037900058400038F00059AD4
:101010000005A50006B00005BB0005C60006D1000E
:1010200005DC0005E70005F20005FD0005080103E9
:101030001301031E01052901053401053F01064A7C
:1010400001055501076001056B0105760105810168
:10105000058C0105970105A20105AD0105B8010543
:10106000C30106CE0105D90105E40105EF0105FA2A
:1010700001050502061002061B02052602073102C1
:10108000053C02074702075202075D020768020596
:101090007302047E02058902049402079F0205AAD6
:1010A0000203B50206C00205CB0205D60205E10225
:1010B00005EC0205F702070203050D0305180304FA
:1010C0002303052E03053903054403054F03055A81
:1010D00003056503057003057B030586030591037E
:1010E000059C0305A70307B20305BD0305C8030557
:1010F000D30306DE0301E90306F40305FF030080C2
:1011000080808080008080000000D8D8D8D800007F
:1011100000000000002828FE2828FE2828000020C3
:1011200078B0A07028A8F02020000060A4A6683C39
:1011300072920C000000304848306498C876000075
:101140000080808080000000000000003040C080EF
:10115000808080C0403000C020301010101030203F
:10116000C00020A87070A82000000000000020200F
:1011700020F8202020000000000000000000604057
:10118000C0800000000000F8000000000000000027
:1011900000000000E0E000000008101010202040D7
:1011A00040408000708888A8A888887000000030BF
:1011B000F03030303030FC000000708888087080DB
:1011C00080F800000070880870080888F0000000AF
:1011D0001838785898FC1818000000F88080F80833
:1011E0000888F0000000708880F08888887000000F
:1011F00000F808101020202060000000F888887097
:10120000888888F8000000708888887808887000CE
:1012100000000000E0E00000E0E00000000000E06E
:10122000E000006040C0800000083040804030088E
:10123000000000000000F80000F80000000000803E
:101240006010081060800000007C44448438003046
:10125000300000007088B8A8A8A8B88078000010F6
:10126000302828287C44C6000000F08888F0888850
:1012700088F80000007088888080888878000000E6
:10128000F0888888888888F0000000F88080F880DE
:101290008080F8000000F88080F880808080000066
:1012A0000070888880B8888870000000888888F876
:1012B00088888888000000F8202020202020F8005E
:1012C000000038080808088888F00000008C90A00A
:1012D000C0A0B0908C000000C0C0C0C0C0C0C0F8AA
:1012E00000000088C8D8D8E8A88888000000C8C8CE
:1012F000C8A8A8989898000000708888888888886E
:1013000070000000F8888888F880808000000070F5
:1013100088888888888870301C00F8888C88F890C5
:10132000988C0000007088807008088870000000A9
:10133000FE10101010101010000000888888888897
:10134000888870000000C64444282828281000001F
:1013500000828254746C6C6C44000000C6642810D7
:10136000182844C6000000C6442828101010100099
:101370000000F8081020204080F8000000F0808075
:10138000808080808080F0008040404020201010CD
:10139000100800F01010101010101010F00010289D
:1013A000284444C6000000000000000000000000C7
:1013B0000000F800C04040200000000000000000D5
:1013C00000709018F898EC0000008080B0C8888801
:1013D00088F00000000000708880808870000000A5
:1013E000080878888888887800000000007088F8ED
:1013F0008088700000003820F86060606060000045
:101400000000003C484C78407C46FC008080B0C81E
:10141000888888880000003000E020202020F80024
:1014200000003000F0101010101010E000C0C0D804
:10143000F0E0E0D0C8000000E0202020202020F8CC
:101440000000000000F8A8A8A8A8A800000000005C
:10145000B0C8888888880000000000708888888864
:10146000700000000000B0C8888888F0808000000C
:10147000007888888888780808000000F8C8C0C00C
:10148000C0C00000000000F880F008887000000074
:101490004040F840404060380000000000888888E4
:1014A0008898680000000000888850505020000094
:1014B0000000008254746C6C6C00000000008850C6
:1014C00020205088000000000088885050502020C4
:1014D000C0000000F810306040F80000003C2060C0
:1014E0003010E01020207C00808080808080808010
:1014F000808000F0101830201C201010F800000030
:10150000C8A8A8980000000000000007C000000064
:101510000000000FF00000000000003C3800000058
:10152000000000701C000000000000600E000000C1
:10153000000000E007000000000001C00300000000
:101540000000018003800000000003800180000093
:101550000000030001C000000000030000C0000004
:101560000000060000C00000003FC6000067FC004D
:1015700001FFFE0000FFFF8007C03FC003FC03C067
:1015800007000FF81FF000E00C000C3EFC3000706C
:101590000C000C0FE030003018001C0FF030003849
:1015A0001800183E78300038180018781E180038D7
:1015B0001C0019E0079800300C001F8001F8003073
:1015C0000C001F0000F8007006003C0000380060AE
:1015D00006007800001E00E00300F000001F00C0BD
:1015E0000381F000001F81C001C7B0038019C380D0
:1015F00000CE3007E01CF70000FC300FE01C3E007E
:101600000078300FF01C1C000078300FF01C1C001C
:1016100000FC300FE01C3E0000CE3007E01CF7005D
:1016200001C7B003C019C3800381F000001F81C04F
:101630000300F000001F00C006007800001E00E05C
:1016400006003C00003800600C001F0000F800306D
:101650000C001F8001F800301C0019E007980030D2
:10166000180018F81E1800381800183E7C300018B2
:1016700018001C0FF03000381C000C07E030003060
:101680000C000C3FFC3000300E000FF81FF0006023
:1016900007C03FC007F803E001FFFE0000FFFF8026
:1016A000007FE6000067FE000000060000C00000AA
:1016B0000000030000C000000000030001C00000A3
:1016C0000000038001800000000001800380000012
:1016D000000001C003000000000000E0070000005F
:1016E000000000600E000000000000301C00000040
:1016F0000000003C380000000000000FF000000077
:1017000000000007C00000005C1711241FBECFEFCF
:10171000D8E0DEBFCDBF12E0A0E0B1E0E4E2F2E34A
:1017200002C005900D92A031B107D9F726E0A0E1E3
:10173000B2E001C01D92A731B207E1F71BE0C5E896
:10174000DBE004C02197FE010E944B18C438D1078A
:10175000C9F70E94850F0C9410190C9400006623A1
:10176000ACF1403498F52223C9F0242F2695269514
:10177000269550E8259F90011124260F311DFC016C
:10178000E20FF31F477081E090E002C0880F991FBD
:101790004A95E2F79081892B80830895242F26951E
:1017A0002695269530E8239FF0011124E60FF11DC0
:1017B000E80FF91F477081E090E002C0880F991F81
:1017C0004A95E2F7809590818923808308952F922E
:1017D0003F924F925F926F927F928F929F92AF92C1
:1017E000BF92CF92DF92EF92FF920F931F93CF930E
:1017F000DF9300D01F92CDB7DEB7E22FF0E037962F
:101800003F011AF437E0630E711C75946794759468
:10181000679475946794442309F44BC0422E5B018E
:101820006C01242E2E0C812C912C77240983312CD1
:1018300000E810E030C08F2D869586958695EA8168
:10184000FB81E80FF11DEA0DFB1D84919F2D977020
:10185000980102C0359527959A95E2F7E82FF0E0B8
:10186000E223F323EF2B39F021E04E2D652DC60145
:101870000E94AF0B06C0232D4E2D652DC6010E9480
:10188000AF0BF3945394F410D6CF8FEF881A980AC5
:10189000E394E21471F04420C1F3869CF001879C2C
:1018A000F00D969CF00D1124FB83EA835980F32CF4
:1018B000C2CF0F900F900F90DF91CF911F910F919A
:1018C000FF90EF90DF90CF90BF90AF909F908F9060
:1018D0007F906F905F904F903F902F900895662378
:1018E000CCF04034B8F4242F26952695269530E880
:1018F000239FF0011124E60FF11DE80FF91F477037
:1019000081E090E002C0880F991F4A95E2F790812C
:10191000892B80830895FF920F931F93CF93DF93BA
:10192000222369F0C42FF62E8C01D22FD40F4C2F16
:101930006F2DC8010E946F0CCF5FCD13F8CFDF91E0
:10194000CF911F910F91FF900895FF920F931F93D6
:10195000CF93DF93222369F0F42EC62F8C01D22F70
:10196000D60F4F2D6C2FC8010E946F0CCF5FCD1387
:10197000F8CFDF91CF911F910F91FF900895CF92F3
:10198000DF92EF92FF920F931F93CF93DF93EC01BF
:10199000F62E142FD22EE22EE61AE394C02EC41A8D
:1019A0002E2D0E94A50C2E2D402F6F2DCE010E94B2
:1019B000A50C2C2D412F6F2DCE010E948B0C2C2DB0
:1019C000412F6D2DCE010E948B0CDF91CF911F9185
:1019D0000F91FF90EF90DF90CF900895FC019C5FF6
:1019E0001192E817F907E1F70895CF93DF93EC011F
:1019F0009C5F0E947717CE010E94EE0CDF91CF9181
:101A00000895BC019C5F0E94E71708950895FC01AA
:101A100060831092B90080E28093B8000895DC01E1
:101A200084EA8093BC00ECEBF0E090819923ECF722
:101A30009091B900987F11969C931197983011F06E
:101A40009031B9F48C918093BB0084E88093BC0002
:101A5000ECEBF0E090819923ECF79091B900987F3E
:101A600011969C93983139F081E0903429F480E00C
:101A7000089581E0089580E00895DC016093BB0043
:101A800084E88093BC00ECEBF0E090819923ECF7C4
:101A90009091B900987F11969C9381E0983209F457
:101AA00080E0089584E98093BC00ECEBF0E0808155
:101AB00084FDFDCF089590E0FC01B197EE35F1056E
:101AC00008F048C0EC5CFF4F0C944B1881E008957F
:101AD00082E0089583E0089584E0089585E0089504
:101AE00086E0089587E0089588E0089589E00895E4
:101AF0008AE008958BE008958CE008958DE00895C4
:101B00008EE008958FE0089589E108958AE10895AF
:101B10008BE108958CE108958DE108958EE108959B
:101B20008FE1089580E208958AE308958BE3089594
:101B30008CE308958DE308958EE308958FE308956F
:101B400080E408958AE508958BE508958CE508956D
:101B50008DE508958EE1089580E008952F923F92DB
:101B60004F925F926F927F928F929F92AF92BF92AD
:101B7000CF92DF92EF92FF920F931F93CF93DF9359
:101B800000D000D0CDB7DEB75C017A836983142F13
:101B9000222EE02E2DB73EB73C832B83FB01019014
:101BA0000020E9F73197CF01861B970BF82E992774
:101BB000EDB7FEB7E81BF90B0FB6F894FEBF0FBEEA
:101BC000EDBF2DB73EB72F5F3F4F290111823296EF
:101BD0008130910531F0820F931F1192E817F907B8
:101BE000E1F7FF2009F4A1C089809A80042DC42C5C
:101BF000D52C312CD4018D914D01803221F4F50189
:101C00008381380E34C09FEB980F9A3120F49FEDFA
:101C1000980FD6019C939FE9980F9A3120F49FED7D
:101C2000980FF601908390ED980F9A3020F49FED75
:101C3000980FD6019C933601F6019081911104C052
:101C40000E945B0DD6018C93D301EC91F0E0CF01A3
:101C5000880F991FE80FF91FD50114968D919C915B
:101C60001597E80FF91FE491339433943E0EBFEFBC
:101C7000CB1ADB0A8C2D801B8F1508F4BBCFE1E05B
:101C8000EE1649F0EE1620F0F2E0EF1649F00AC029
:101C900010E008C0312C369410E4131903C0312C25
:101CA00010E81319FF2009F44BC039803201832C4E
:101CB0009A80D4018D914D01803221F4F501838108
:101CC000180F2AC0D301CC908C2D90E06C01CC0C65
:101CD000DD1CC80ED91ED5011496ED91FC91159707
:101CE000EC0DFD1D2491319685919491F50166814D
:101CF0007781680F791FE22C012F408185E192E006
:101D00000E94E70BD5011496ED91FC911597EC0D0F
:101D1000FD1DE4911E5F1E0FBFEF6B1A7B0A882D1D
:101D200083198F1508F4C5CF0BC0E1E0EE1609F456
:101D3000B1CFEE1608F4ACCFF2E0EF1609F4AFCF56
:101D40002B813C810FB6F8943EBF0FBE2DBF0F9084
:101D50000F900F900F90DF91CF911F910F91FF90F7
:101D6000EF90DF90CF90BF90AF909F908F907F903B
:101D70006F905F904F903F902F900895FC016436D4
:101D800080F480E2808389E2689F812D112482950E
:101D90008F70962F24E6829F901911249A3068F450
:101DA00009C089E2689F812D112482958F70805D22
:101DB000808303C080E2818315C099E2699F912DE1
:101DC000112492959F70862F24E6929F80191124EA
:101DD000982F8DEC989F912D112496959695969518
:101DE000905D91839DEC699F912D11249695969518
:101DF0009695990F892F880F880F980F691B605D42
:101E0000628308951F920F920FB60F9211242F93A1
:101E10003F934F935F938F939F93EF93FF938091A3
:101E20001202909113020196909313028093120272
:101E30004B9B1DC02091120230911302E0911202BF
:101E4000F0911302F695E795F695E795F695E795E7
:101E5000EB5FFE4F40812770332781E090E002C0A6
:101E6000880F991F2A95E2F7842B808320C0409128
:101E7000120250911302E0911202F0911302F695B2
:101E8000E795F695E795F695E795EB5FFE4F208190
:101E90004770552781E090E002C0880F991F4A954E
:101EA000E2F78095909530E08223932380838091A0
:101EB000120290911302883E934020F01092130278
:101EC000109212022091120230911302809110029E
:101ED000909111022817390759F481E08093140278
:101EE000109213021092120210921102109210021C
:101EF000FF91EF919F918F915F914F913F912F9122
:101F00000F900FBE0F901F901895CF93DF93CDB712
:101F1000DEB7C05BD1090FB6F894DEBF0FBECDBFF0
:101F2000FE01ED57FF4F8AE0DF01282F1D922A9511
:101F3000E9F73A97DF011D928A95E9F78CE3FC9760
:101F4000DF01282F1D922A95E9F7FC97DF011D92EA
:101F50008A95E9F780E290E2A0E2B0E0C456DF4F54
:101F600088839983AA83BB83CC59D04089E0E0E081
:101F7000F2E0DE01A357BF4F01900D928A95E1F781
:101F800086E0E9E0F2E0DE01AA56BF4F01900D9233
:101F90008A95E1F785E192E00E94EE0CE12C00E2E7
:101FA00020E440E468E075E185E192E00E94E70BFF
:101FB00085E192E00E94010DBFEFEBE7F2E9B1503D
:101FC000E040F040E1F700C0000085E192E00E94AF
:101FD000EE0C85E192E00E94010D53985B9AE1E8D6
:101FE000F0E0808188608083808182608083EFE67A
:101FF000F0E080818260808378948FEC97E090930A
:1020000089008093880010E0C155DF4F1882CF5AB5
:10201000D040C255DF4F1882CE5AD040C355DF4F53
:102020001882CD5AD040C055DF4F1882C05BD040D7
:10203000C455DF4F1882CC5AD040C555DF4F1882A7
:10204000CB5AD040CD55DF4F1882C35AD040CC5523
:10205000DF4F1882C45AD040C655DF4F1882CA5A83
:10206000D040CB55DF4F1882C55AD040212C24E6F2
:10207000C056DF4F2883C05AD040412C512C4E010E
:1020800039E7830E911CC4010A96CA55DF4F998324
:102090008883C65AD040809114028823E1F31092BD
:1020A000140285E192E00E94EE0C809104018823E5
:1020B00009F4D4C109E121E74CE06AE085E192E04E
:1020C0000E94BF0C0CE04BE2602F85E192E00E9481
:1020D0006F0C0E5F0037B9F7C056DF4F9881C05ABA
:1020E000D040943651F401E020E04FE369E971E01B
:1020F0008DE891E00E94AE0D73C6C056DF4FA881F7
:10210000C05AD040AA3009F06BC601E020E04FE38E
:1021100068EA71E08DE891E00E94AE0D08E221E7E7
:102120004FE16AE085E192E00E94BF0C64E1C65590
:10213000DF4FB881CA5AD0406B1BCE0184569F4FE7
:102140000E94BE0E02E020E04FE7BE0164567F4FC2
:102150008DE891E00E94AE0D43C6EFEFCE1ADE0A85
:10216000F8E0CF16D10421F40F5F1F4FC32CD12C00
:10217000A3942B2DF801EB5FFE4F808190E00C2C97
:1021800002C0959587950A94E2F7382F3170B32EE7
:10219000E414F50470F16E147F0458F1211118C095
:1021A000332309F449C0C70184199509CF55DF4F7E
:1021B00068817981C15AD0400E943718E3E8F0E085
:1021C000EC0FFD1FE60FF71F80818F5F808302C039
:1021D000332391F1C056DF4F8881C05AD0408A30F6
:1021E00051F426E041E26A2D85E192E00E948B0CD9
:1021F00002C0BB2009F19701ADECBCEC0E94511864
:10220000969587959695879596958795AC01440FF9
:10221000551F9C01220F331F220F331F220F331F24
:10222000240F351FA701421B530B425F6CE0680F60
:1022300085E192E00E946F0C9FEFE91AF90AA8EE7F
:10224000EA16A3E0FA0609F088CF34019E012D5763
:102250003F4F790164016CE03B2C5701F70180810D
:10226000882329F0D6018C918F5F8C9302C0F601F0
:1022700010821AE0160FD6014D916D014195440F61
:10228000415C0FE3212F85E192E00E94BF0CF50134
:102290001082FFEFEF1AFF0A612F1037F1F6132DAE
:1022A000F401CB55DF4F2881C55AD040CA55DF4FC6
:1022B00048815981C65AD0403E2F38198191D401A6
:1022C000A20DB11D9C91981710F4222D232E2817D2
:1022D00018F4821508F4232FE417F50769F7CB5596
:1022E000DF4F2883C55AD040022DC056DF4F2881CA
:1022F000C05AD0402436D9F4822D90E0F401E80F82
:10230000F91F20812A3008F4A9C024E6289F200163
:10231000299F500C1124F401CA55DF4F88819981FF
:10232000C65AD04011928E179F07E1F708C0C056D9
:10233000DF4F3881C05AD0403A3009F08FC0920147
:102340003695279536952795ABE7B4E10E9451184D
:102350007C01F694E7946E2D660F862F880F880F08
:10236000680F645F25E049E185E192E00E948B0CF3
:102370008FEFE81AF80AEE0C6E2D660F660F6E0DE1
:10238000645F25E049E185E192E00E948B0CC6552F
:10239000DF4F9881CA5AD0409F5FC655DF4F988360
:1023A000CA5AD040943128F1F401CA55DF4F8881D0
:1023B0009981C65AD04011928E179F07E1F70E946B
:1023C000AC182091120230911302280F311D309366
:1023D000130220931202C655DF4F1882CA5AD0400A
:1023E000A4E6C056DF4FA883C05AD040412C512CE0
:1023F00006C0BAE0C056DF4FB883C05AD040802F25
:1024000090E0F401E80FF91F20812A3038F19C0197
:10241000220F331F880F991F880F991F880F991F4C
:10242000820F931F0596480E591E5092110240923A
:102430001002F301CA55DF4F88819981C65AD040F6
:1024400011928E179F07E1F710920401E4E6C0563F
:10245000DF4FE883C05AD040412C512C80910401B9
:102460008111B9C4CC55DF4FF881C45AD040F11165
:102470002EC001E020E04FE366EB71E08DE891E0D3
:102480000E94AE0D09E121E74CE06AE085E192E0AF
:102490000E94BF0C23E049E166E185E192E00E94E1
:1024A0008B0C23E049E160E285E192E00E948B0C15
:1024B00023E049E16AE285E192E00E948B0C23E08F
:1024C00049E16EE385E192E00E948B0C72C001E06D
:1024D00020E04FE366EC71E08DE891E00E94AE0DE4
:1024E00009E121E74CE06AE085E192E00E94BF0C3F
:1024F00023E049E166E185E192E00E948B0C23E054
:1025000049E160E285E192E00E948B0C23E049E121
:102510006AE285E192E00E948B0C23E049E16EE3E0
:1025200085E192E00E948B0CCD55DF4F2881C35A84
:10253000D0402F5FCD55DF4F2883C35AD0402C3376
:10254000C0F18CE0C357DF4F8883CD58D040C257CD
:10255000DF4F8883CE58D040C057DF4F8883C059A3
:10256000D040CF56DF4F8883C159D040CD56DF4F82
:102570008883C359D040CC56DF4F8883C459D0409C
:10258000CA56DF4F8883C659D040C956DF4F88836B
:10259000C759D040C756DF4F8883C959D040C65667
:1025A000DF4F8883CA59D040CD55DF4F1882C35AB8
:1025B000D040CD55DF4F3881C35AD040832F90E0B3
:1025C000FE01E80FF91F15AEFE01E80FF91F118299
:1025D000E12CF12CCF55DF4F1882C15AD040312C5D
:1025E000612C712CC12CD12CA12CB12C03C08FEFEC
:1025F000E81AF80A9FEFC91AD90AA8E0CA16D10446
:1026000009F04AC4BFEFAB1ABB0AF501EB5FFE4FFE
:102610008081182F117080FF44C0C12CD12C9701EC
:10262000ADECBCEC0E9451189695879596958795D0
:1026300096958795AC01440F551F9C01220F331FBF
:10264000220F331F220F331F240F351FA701421BF8
:10265000530B425F6CE0680F85E192E00E946F0CC3
:10266000E4E6EE16F10430F0F8ECEF16F10430F485
:1026700073940BC028ECE216F10438F03CE2E31648
:1026800031E0F30638F463940EC08CE2E81681E082
:10269000F80648F094EFE91691E0F90620F4339437
:1026A00002C0C12CD12CA4EFEA16A1E0FA0609F071
:1026B00071C3B4E5B71550F481E0FE01CD55DF4F8D
:1026C0002881C35AD040E20FF11D85AF34E536159D
:1026D00050F481E0FE01CD55DF4F9881C35AD040C0
:1026E000E90FF11D8183A9EAA31530F4B1E0CF55BC
:1026F000DF4FB883C15AD040CC55DF4FE881C45A70
:10270000D040E111B9C38DAD882309F498C3898104
:10271000882309F494C3CF55DF4FF881C15AD040C4
:10272000F111E2C08CC367E971E002C065E971E0B4
:1027300003E02EE143E28DE891E00E94AE0D672DAB
:10274000CE0184569F4F0E94BE0E2EE14DE2BE0187
:1027500064567F4F8DE891E00E94AE0D00E02AE2C2
:1027600040E065ED71E08DE891E00E94AE0DC85546
:10277000DF4FE881F981C85AD040EC0FFD1F8181FD
:10278000811103C067E971E002C065E971E003E00F
:102790002AE243E28DE891E00E94AE0D662DCE0163
:1027A00084569F4F0E94BE0E2AE24DE2BE0164563F
:1027B0007F4F8DE891E00E94AE0D00E026E340E0FF
:1027C0006AED71E08DE891E00E94AE0DCF55DF4FCC
:1027D0002881C15AD040211103C067E971E002C0CD
:1027E00065E971E003E026E343E28DE891E00E94B1
:1027F000AE0D632DCE0184569F4F0E94BE0E26E380
:102800004DE2BE0164567F4F8DE891E00E94AE0D0F
:10281000312C612C712CEBCE2F969FAD2F976096AB
:102820008FAD609728E2829F802D112430E5939F21
:10283000800D112466969FAD6697980F62962FAD16
:102840006297220F822F880F880F820F980F619650
:102850008FAD6197282F220F220F822F880F880FAC
:10286000820F980F63968FAD6397282F220F64967F
:102870008FAD6497820F282F220F65968FAD6597D5
:10288000820F880F980FC155DF4F9883CF5AD040E1
:1028900064C0CD55DF4F8881C35AD0408D3149F592
:1028A00067968FAD6797880F982F990F990F980F9C
:1028B00068968FAD6897880F880F880F890F6B9681
:1028C0009FAD6B97980F69968FAD6997282F220F50
:1028D0006A968FAD6A97820F880F980FC255DF4FA7
:1028E0009883CE5AD04055C0CD55DF4F1882C35A79
:1028F000D040CD55DF4F9881C35AD040933269F50F
:102900006C968FAD6C97880F880F282F220F220F9F
:10291000280F6D968FAD6D97880F982F990F990F8F
:10292000890F820FA1962FADA197280F6E968FADBC
:102930006E97982F990F6F968FAD6F97890F982F7D
:10294000990FA0968FADA097890F880F280FC355B8
:10295000DF4F2883CD5AD04050C0CD55DF4FA881DE
:10296000C35AD040A632A9F4A2969FADA297A396CF
:102970008FADA397B2E09B9F800D1124880FA49682
:102980009FADA497890FC055DF4F8883C05BD040AF
:1029900072C0CD55DF4FE881C35AD040EC3269F5A3
:1029A000A5968FADA597880F880F282F220F220F8D
:1029B000280FA6968FADA697880F982F990F990F7D
:1029C000890F820FAA962FADAA97280FA7968FADD1
:1029D000A797982F990FA8968FADA897890F982F32
:1029E000990FA9968FADA997890F880F280FC45505
:1029F000DF4F2883CC5AD04045C0CD55DF4FF881FA
:102A0000C35AD040F333B9F5AB962FADAB97AC9624
:102A10008FADAC97982F990F990F892F880F880F3A
:102A2000890F38E2239F800D1124E1969FADE19735
:102A3000980FAE968FADAE97880F880F880F980FBE
:102A4000AD968FADAD97282F220F822F880F880F5C
:102A5000820F980FAF968FADAF97282F220FE09679
:102A60008FADE097820F880F980FC555DF4F988381
:102A7000CB5AD04007C0CD55DF4F8881C35AD040D4
:102A80008332A0F189E2C355DF4F9881CD5AD040FF
:102A9000989F812D112482958F70A4E68A9F9019AA
:102AA00011248DEC989F912D1124969596959695CD
:102AB000905DC357DF4F9883CD58D040C355DF4F4B
:102AC000B881CD5AD040B89F812D11248695869526
:102AD0008695880F982F990F990F890FB81B8B2F08
:102AE000805DC257DF4F8883CE58D040CD55DF4F31
:102AF000E881C35AD040ED3180F189E2C255DF4F01
:102B0000F881CE5AD040F89F812D112482958F7084
:102B10009F2F24E6829F901911248DEC989F912D70
:102B20001124969596959695905DC057DF4F9883A2
:102B3000C059D040F89F812D1124869586958695A1
:102B4000880F982F990F990F890FF81B8F2F805D91
:102B5000CF56DF4F8883C159D040CD55DF4F3881E4
:102B6000C35AD040383108F43EC089E2C155DF4F26
:102B70009881CF5AD040989F812D112482958F70D3
:102B8000A4E68A9F901911248DEC989F912D112411
:102B9000969596959695905DCD56DF4F9883C3593F
:102BA000D040C155DF4FB881CF5AD040B89F812D5A
:102BB0001124869586958695880F982F990F990FE1
:102BC000890FB81B8B2F805DCC56DF4F8883C4598B
:102BD000D04001E02EE148E2BE0163577F4F8DE80F
:102BE00091E00E94AE0DCD55DF4FE881C35AD04031
:102BF000E63208F455C0C055DF4FF881C05BD040C5
:102C00008F2F90E08730910508F04AC0FC01EE5606
:102C1000FF4F0C944B1802E02EE146E46FED71E09B
:102C20008DE891E00E94AE0D3BC002E02EE146E44B
:102C300063EE71E08DE891E00E94AE0D31C002E0DC
:102C40002EE146E467EE71E08DE891E00E94AE0D62
:102C500027C002E02EE146E46BEE71E08DE891E0E2
:102C60000E94AE0D1DC002E02EE146E46FEE71E061
:102C70008DE891E00E94AE0D13C002E02EE146E423
:102C800063EF71E08DE891E00E94AE0D09C002E0B3
:102C90002EE146E467EF71E08DE891E00E94AE0D11
:102CA000CD55DF4F2881C35AD040233380F189E2CC
:102CB000C555DF4F3881CB5AD040389F812D112424
:102CC00082958F70932FA4E68A9F901911248DEC22
:102CD000989F912D1124969596959695905DC7563F
:102CE000DF4F9883C959D040389F812D1124869594
:102CF00086958695880F982F990F990F890F381B05
:102D0000832F805DC656DF4F8883CA59D040CD558A
:102D1000DF4FB881C35AD040BC3208F4B6C089E254
:102D2000C455DF4FE881CC5AD040E89F812D112453
:102D300082958F709E2FF4E68F9F901911248DEC51
:102D4000989F912D1124969596959695905DCA56CB
:102D5000DF4F9883C659D040E89F812D1124869576
:102D600086958695880F982F990F990F890FE81BE4
:102D70008E2F805DC956DF4F8883C759D04001E050
:102D80002AE240E0BE016A567F4F85E891E00E944A
:102D9000AE0D7BC0C7010196883E934008F427CC56
:102DA000CC55DF4F3881C45AD0403323A1F0CD55E4
:102DB000DF4F6881C35AD040CE0184569F4F0E9496
:102DC000BE0E02E020E040E8BE0164567F4F8DE871
:102DD00091E00E94AE0D85E192E00E94010D5BC979
:102DE000C056DF4FA881C05AD0408A2F90E03C01E6
:102DF000660C771C880F991F880F991F880F991FE1
:102E0000860D971D3201B1E06B1A7108680E791EAC
:102E10000CE00419212FE12CF12CCC24C394D12CEB
:102E2000A12CB12CEA2FF0E0CF55DF4FF983E883D6
:102E3000C15AD040312C802F8501A82E9BC900E0BB
:102E40002EE140E06BEF71E08DE891E00E94AE0D65
:102E5000CD55DF4F9881C35AD040892F90E0C85597
:102E6000DF4F99838883C85AD040FC01EC0FFD1FC7
:102E700085AD81115BCC57CCCD55DF4FA881C35AAE
:102E8000D040A83109F005CDC7CCB1E0CC55DF4F1B
:102E9000B883C45AD040ABCBF501EB5FFE4F8081C5
:102EA00090E00C2C02C0959587950A94E2F7182FB4
:102EB000117080FFF8CBB3CB85E192E00E94F50C56
:102EC00008951F93CF93DF93EC01162F0E940F0DEF
:102ED00060E0CE010E943D0D612FCE010E943D0DAC
:102EE000CE010E94520DDF91CF911F910895CF9393
:102EF000DF93EC010E94060D68E7CE010E94070DEA
:102F00006EEACE010E94611765EDCE010E94611745
:102F100060E8CE010E94611768EACE010E94611745
:102F20006FE3CE010E94611763EDCE010E9461172D
:102F300060E0CE010E94611760E4CE010E9461173B
:102F40006DE8CE010E94611764E1CE010E94611715
:102F500060E2CE010E94611760E0CE010E9461171D
:102F600061EACE010E94611768ECCE010E946117F0
:102F70006AEDCE010E94611762E1CE010E946117E5
:102F800061E8CE010E9461176FECCE010E946117CB
:102F900069EDCE010E94611761EFCE010E946117B9
:102FA0006BEDCE010E94611760E4CE010E946117B3
:102FB00064EACE010E94611766EACE010E946117A1
:102FC0006FEACE010E946117DF91CF910895CF92F1
:102FD000DF92EF92FF920F931F93CF93DF93082F0F
:102FE000192F7B0161E20E94611760E0802F912F11
:102FF0000E9461176FE7802F912F0E94611762E294
:10300000802F912F0E94611760E0802F912F0E94E6
:10301000611767E0802F912F0E946117E7018CEF05
:10302000F81A802F912F0E940F0D60E4802F912FAE
:103030000E943D0D6E0180E1C80ED11C6991802F68
:10304000912F0E943D0DCC15DD05C1F7802F912FEA
:103050000E94520DE601CE14DF0419F7DF91CF91E3
:103060001F910F91FF90EF90DF90CF900895AA1BD2
:10307000BB1B51E107C0AA1FBB1FA617B70710F063
:10308000A61BB70B881F991F5A95A9F78095909595
:10309000BC01CD010895EE0FFF1F0590F491E02DC6
:1030A0000994A29FB001B39FC001A39F700D811D21
:1030B0001124911DB29F700D811D1124911D089541
:1030C0008F929F92AF92BF92CF92DF92EF92FF9238
:1030D000CF93DF93EC01688179818A819B816115AF
:1030E00071058105910521F464E279ED8BE597E0A6
:1030F0002DE133EF41E050E00E94BC1849015A0134
:103100009B01AC01A7EAB1E40E94DB186B017C01D2
:10311000ACEEB4EFA50194010E94E918DC01CB01EB
:103120008C0D9D1DAE1DBF1DB7FF03C00197A109EA
:10313000B04888839983AA83BB839F77DF91CF911F
:10314000FF90EF90DF90CF90BF90AF909F908F90C7
:1031500008950E946018089580E091E00E94601830
:103160000895A0E0B0E08093000190930101A09346
:103170000201B09303010895052E97FB1EF40094FD
:103180000E94D31857FD07D00E94EE1807FC03D009
:103190004EF40C94D31850954095309521953F4F9F
:1031A0004F4F5F4F089590958095709561957F4F33
:1031B0008F4F9F4F08950E945118A59F900DB49F67
:1031C000900DA49F800D911D11240895B7FF0C94BC
:1031D000DB180E94DB18821B930B0895A1E21A2EC4
:1031E000AA1BBB1BFD010DC0AA1FBB1FEE1FFF1FAB
:1031F000A217B307E407F50720F0A21BB30BE40BFB
:10320000F50B661F771F881F991F1A9469F7609541
:103210007095809590959B01AC01BD01CF010895FB
:04322000F894FFCF50
:1032240001000000017F0000000000000000000019
:10323400000000000000000000000000000000008A
:10324400000000000000000000000000000000007A
:10325400000000000000000000000000000000006A
:10326400000000000000000000000000000000005A
:10327400000000000000000000000000000000004A
:10328400000000000000000000000000000000003A
:10329400000000000000000000000000000000002A
:1032A400000000000014217E0232014C020B217E3A
:1032B40002E40FFE10310030005365617263682030
:1032C4003A203130306D7300536561726368203A7F
:1032D4002031306D73004D696E206D61726B207307
:1032E4006561726368004D696E206D61726B206662
:1032F4006F756E64004269744200426974430053FE
:10330400756E004D6F6E005475650057656400540A
:103314006875004672690053617400426974410023
:103324002D2D2F2D2D2F2D2D002D2D3A2D2D00003F
:00000001FF
