:100000000C9425040C944D040C944D040C944D0454
:100010000C944D040C944D040C944D040C944D041C
:100020000C944D040C944D040C944D040C94A207B4
:100030000C944D040C944D040C944D040C944D04FC
:100040000C944D040C944D040C944D040C944D04EC
:100050000C944D040C944D040C944D040C944D04DC
:100060000C944D040C944D044C06060608060A0632
:100070000C060E06100612061406160618061A06B8
:100080001C061E06200622064A064A064A064A069C
:100090004A064A064A064A064A062406260628064C
:1000A0002A062C062E06300632064A064A064A065C
:1000B0004A064A064A064A064A064A064A064A06C0
:1000C0004A064A064A064A064A064A064A064A06B0
:1000D0004A064A064A064A064A064A0634063606CA
:1000E00038063A063C063E0640064A064A064A06D6
:1000F0004A064A064A064A064A064A064A064A0680
:100100004A064A064A064A064A064A064A064A066F
:100110004A064A064A064A064A064A06420644066D
:1001200046064806010000050B00071600052100E1
:10013000072C00073700014200044D000458000559
:100140006300056E00037900058400038F00059AA3
:100150000005A50006B00005BB0005C60006D100DD
:1001600005DC0005E70005F20005FD0005080103B8
:100170001301031E01052901053401053F01064A4B
:1001800001055501076001056B0105760105810137
:10019000058C0105970105A20105AD0105B8010512
:1001A000C30106CE0105D90105E40105EF0105FAF9
:1001B00001050502061002061B0205260207310290
:1001C000053C02074702075202075D020768020565
:1001D0007302047E02058902049402079F0205AAA5
:1001E0000203B50206C00205CB0205D60205E102F4
:1001F00005EC0205F702070203050D0305180304C9
:100200002303052E03053903054403054F03055A4F
:1002100003056503057003057B030586030591034C
:10022000059C0305A70307B20305BD0305C8030525
:10023000D30306DE0301E90306F40305FF03008090
:1002400080808080008080000000D8D8D8D800004E
:1002500000000000002828FE2828FE282800002092
:1002600078B0A07028A8F02020000060A4A6683C08
:1002700072920C000000304848306498C876000044
:100280000080808080000000000000003040C080BE
:10029000808080C0403000C020301010101030200E
:1002A000C00020A87070A8200000000000002020DE
:1002B00020F8202020000000000000000000604026
:1002C000C0800000000000F80000000000000000F6
:1002D00000000000E0E000000008101010202040A6
:1002E00040408000708888A8A8888870000000308E
:1002F000F03030303030FC000000708888087080AA
:1003000080F800000070880870080888F00000007D
:100310001838785898FC1818000000F88080F80801
:100320000888F0000000708880F0888888700000DD
:1003300000F808101020202060000000F888887065
:10034000888888F80000007088888878088870009D
:1003500000000000E0E00000E0E00000000000E03D
:10036000E000006040C0800000083040804030085D
:10037000000000000000F80000F80000000000800D
:100380006010081060800000007C44448438003015
:10039000300000007088B8A8A8A8B88078000010C5
:1003A000302828287C44C6000000F08888F088881F
:1003B00088F80000007088888080888878000000B5
:1003C000F0888888888888F0000000F88080F880AD
:1003D0008080F8000000F88080F880808080000035
:1003E0000070888880B8888870000000888888F845
:1003F00088888888000000F8202020202020F8002D
:10040000000038080808088888F00000008C90A0D8
:10041000C0A0B0908C000000C0C0C0C0C0C0C0F878
:1004200000000088C8D8D8E8A88888000000C8C89C
:10043000C8A8A8989898000000708888888888883C
:1004400070000000F8888888F880808000000070C4
:1004500088888888888870301C00F8888C88F89094
:10046000988C000000708880700808887000000078
:10047000FE10101010101010000000888888888866
:10048000888870000000C6444428282828100000EE
:1004900000828254746C6C6C44000000C6642810A6
:1004A000182844C6000000C6442828101010100068
:1004B0000000F8081020204080F8000000F0808044
:1004C000808080808080F00080404040202010109C
:1004D000100800F01010101010101010F00010286C
:1004E000284444C600000000000000000000000096
:1004F0000000F800C04040200000000000000000A4
:1005000000709018F898EC0000008080B0C88888CF
:1005100088F0000000000070888080887000000073
:10052000080878888888887800000000007088F8BB
:100530008088700000003820F86060606060000013
:100540000000003C484C78407C46FC008080B0C8ED
:10055000888888880000003000E020202020F800F3
:1005600000003000F0101010101010E000C0C0D8D3
:10057000F0E0E0D0C8000000E0202020202020F89B
:100580000000000000F8A8A8A8A8A800000000002B
:10059000B0C8888888880000000000708888888833
:1005A000700000000000B0C8888888F080800000DB
:1005B000007888888888780808000000F8C8C0C0DB
:1005C000C0C00000000000F880F008887000000043
:1005D0004040F840404060380000000000888888B3
:1005E0008898680000000000888850505020000063
:1005F0000000008254746C6C6C0000000000885095
:100600002020508800000000008888505050202092
:10061000C0000000F810306040F80000003C20608E
:100620003010E01020207C008080808080808080DE
:10063000808000F0101830201C201010F8000000FE
:10064000C8A8A8980000000000000007C000000033
:100650000000000FF00000000000003C3800000027
:10066000000000701C000000000000600E00000090
:10067000000000E007000000000001C003000000CF
:100680000000018003800000000003800180000062
:100690000000030001C000000000030000C00000D3
:1006A0000000060000C00000003FC6000067FC001C
:1006B00001FFFE0000FFFF8007C03FC003FC03C036
:1006C00007000FF81FF000E00C000C3EFC3000703B
:1006D0000C000C0FE030003018001C0FF030003818
:1006E0001800183E78300038180018781E180038A6
:1006F0001C0019E0079800300C001F8001F8003042
:100700000C001F0000F8007006003C00003800607C
:1007100006007800001E00E00300F000001F00C08B
:100720000381F000001F81C001C7B0038019C3809E
:1007300000CE3007E01CF70000FC300FE01C3E004C
:100740000078300FF01C1C000078300FF01C1C00EB
:1007500000FC300FE01C3E0000CE3007E01CF7002C
:1007600001C7B003C019C3800381F000001F81C01E
:100770000300F000001F00C006007800001E00E02B
:1007800006003C00003800600C001F0000F800303C
:100790000C001F8001F800301C0019E007980030A1
:1007A000180018F81E1800381800183E7C30001881
:1007B00018001C0FF03000381C000C07E03000302F
:1007C0000C000C3FFC3000300E000FF81FF00060F2
:1007D00007C03FC007F803E001FFFE0000FFFF80F5
:1007E000007FE6000067FE000000060000C0000079
:1007F0000000030000C000000000030001C0000072
:1008000000000380018000000000018003800000E0
:10081000000001C003000000000000E0070000002D
:10082000000000600E000000000000301C0000000E
:100830000000003C380000000000000FF000000045
:1008400000000007C0000000CA0E11241FBECFEF39
:10085000D8E0DEBFCDBF11E0A0E0B1E0E0E0F1E222
:1008600002C005900D92AC3DB107D9F725E0ACED83
:10087000B1E001C01D92A33EB207E1F714E0C5E26A
:10088000D4E004C02197FE010E94B90FC432D10701
:10089000C9F70E9425080C947E100C940000662372
:1008A000ACF1403498F52223C9F0242F26952695E3
:1008B000269550E8259F90011124260F311DFC013B
:1008C000E20FF31F477081E090E002C0880F991F8C
:1008D0004A95E2F79081892B80830895242F2695ED
:1008E0002695269530E8239FF0011124E60FF11D8F
:1008F000E80FF91F477081E090E002C0880F991F50
:100900004A95E2F7809590818923808308952F92FC
:100910003F924F925F926F927F928F929F92AF928F
:10092000BF92CF92DF92EF92FF920F931F93CF93DC
:10093000DF9300D01F92CDB7DEB7E22FF0E03796FD
:100940003F011AF437E0630E711C75946794759437
:10095000679475946794442309F44BC0422E5B015D
:100960006C01242E2E0C812C912C77240983312CA0
:1009700000E810E030C08F2D869586958695EA8137
:10098000FB81E80FF11DEA0DFB1D84919F2D9770EF
:10099000980102C0359527959A95E2F7E82FF0E087
:1009A000E223F323EF2B39F021E04E2D652DC60114
:1009B0000E944F0406C0232D4E2D652DC6010E94B6
:1009C0004F04F3945394F410D6CF8FEF881A980AFB
:1009D000E394E21471F04420C1F3869CF001879CFB
:1009E000F00D969CF00D1124FB83EA835980F32CC3
:1009F000C2CF0F900F900F90DF91CF911F910F9169
:100A0000FF90EF90DF90CF90BF90AF909F908F902E
:100A10007F906F905F904F903F902F900895662346
:100A2000CCF04034B8F4242F26952695269530E84E
:100A3000239FF0011124E60FF11DE80FF91F477005
:100A400081E090E002C0880F991F4A95E2F79081FB
:100A5000892B80830895FF920F931F93CF93DF9389
:100A6000222369F0C42FF62E8C01D22FD40F4C2FE5
:100A70006F2DC8010E940F05CF5FCD13F8CFDF9116
:100A8000CF911F910F91FF900895FF920F931F93A5
:100A9000CF93DF93222369F0F42EC62F8C01D22F3F
:100AA000D60F4F2D6C2FC8010E940F05CF5FCD13BD
:100AB000F8CFDF91CF911F910F91FF900895CF92C2
:100AC000DF92EF92FF920F931F93CF93DF93EC018E
:100AD000F62E142FD22EE22EE61AE394C02EC41A5C
:100AE0002E2D0E9445052E2D402F6F2DCE010E94E8
:100AF00045052C2D412F6F2DCE010E942B052C2D4D
:100B0000412F6D2DCE010E942B05DF91CF911F91BA
:100B10000F91FF90EF90DF90CF900895FC019C5FC4
:100B20001192E817F907E1F70895CF93DF93EC01ED
:100B30009C5F0E94E50ECE010E948E05DF91CF9151
:100B40000895BC019C5F0E94550F08950895FC0113
:100B500060831092B90080E28093B8000895DC01B0
:100B600084EA8093BC00ECEBF0E090819923ECF7F1
:100B70009091B900987F11969C931197983011F03D
:100B80009031B9F48C918093BB0084E88093BC00D1
:100B9000ECEBF0E090819923ECF79091B900987F0D
:100BA00011969C93983139F081E0903429F480E0DB
:100BB000089581E0089580E00895DC016093BB0012
:100BC00084E88093BC00ECEBF0E090819923ECF793
:100BD0009091B900987F11969C9381E0983209F426
:100BE00080E0089584E98093BC00ECEBF0E0808124
:100BF00084FDFDCF089590E0FC01B197EE35F1053D
:100C000008F048C0EC5CFF4F0C94B90F81E00895E8
:100C100082E0089583E0089584E0089585E00895D2
:100C200086E0089587E0089588E0089589E00895B2
:100C30008AE008958BE008958CE008958DE0089592
:100C40008EE008958FE0089589E108958AE108957E
:100C50008BE108958CE108958DE108958EE108956A
:100C60008FE1089580E208958AE308958BE3089563
:100C70008CE308958DE308958EE308958FE308953E
:100C800080E408958AE508958BE508958CE508953C
:100C90008DE508958EE1089580E008952F923F92AA
:100CA0004F925F926F927F928F929F92AF92BF927C
:100CB000CF92DF92EF92FF920F931F93CF93DF9328
:100CC00000D000D0CDB7DEB75C017A836983142FE2
:100CD000222EE02E2DB73EB73C832B83FB010190E3
:100CE0000020E9F73197CF01861B970BF82E992743
:100CF000EDB7FEB7E81BF90B0FB6F894FEBF0FBEB9
:100D0000EDBF2DB73EB72F5F3F4F290111823296BD
:100D10008130910531F0820F931F1192E817F90786
:100D2000E1F7FF2009F4A1C089809A80042DC42C2A
:100D3000D52C312CD4018D914D01803221F4F50157
:100D40008381380E34C09FEB980F9A3120F49FEDC9
:100D5000980FD6019C939FE9980F9A3120F49FED4C
:100D6000980FF601908390ED980F9A3020F49FED44
:100D7000980FD6019C933601F6019081911104C021
:100D80000E94FB05D6018C93D301EC91F0E0CF01DA
:100D9000880F991FE80FF91FD50114968D919C912A
:100DA0001597E80FF91FE491339433943E0EBFEF8B
:100DB000CB1ADB0A8C2D801B8F1508F4BBCFE1E02A
:100DC000EE1649F0EE1620F0F2E0EF1649F00AC0F8
:100DD00010E008C0312C369410E4131903C0312CF4
:100DE00010E81319FF2009F44BC039803201832C1D
:100DF0009A80D4018D914D01803221F4F5018381D7
:100E0000180F2AC0D301CC908C2D90E06C01CC0C33
:100E1000DD1CC80ED91ED5011496ED91FC911597D5
:100E2000EC0DFD1D2491319685919491F50166811B
:100E30007781680F791FE22C012F408181EE91E0CC
:100E40000E948704D5011496ED91FC911597EC0D45
:100E5000FD1DE4911E5F1E0FBFEF6B1A7B0A882DEC
:100E600083198F1508F4C5CF0BC0E1E0EE1609F425
:100E7000B1CFEE1608F4ACCFF2E0EF1609F4AFCF25
:100E80002B813C810FB6F8943EBF0FBE2DBF0F9053
:100E90000F900F900F90DF91CF911F910F91FF90C6
:100EA000EF90DF90CF90BF90AF909F908F907F900A
:100EB0006F905F904F903F902F900895FC016436A3
:100EC00080F480E2808389E2689F812D11248295DD
:100ED0008F70962F24E6829F901911249A3068F41F
:100EE00009C089E2689F812D112482958F70805DF1
:100EF000808303C080E2818315C099E2699F912DB0
:100F0000112492959F70862F24E6929F80191124B8
:100F1000982F8DEC989F912D1124969596959695E6
:100F2000905D91839DEC699F912D112496959695E6
:100F30009695990F892F880F880F980F691B605D10
:100F4000628308951F920F920FB60F9211242F9370
:100F50003F934F935F938F939F93EF93FF93809172
:100F6000DE019091DF0101969093DF018093DE0115
:100F70004B9B1DC02091DE013091DF01E091DE012D
:100F8000F091DF01F695E795F695E795F695E795EB
:100F9000EB5FFE4F40812770332781E090E002C075
:100FA000880F991F2A95E2F7842B808320C04091F7
:100FB000DE015091DF01E091DE01F091DF01F69555
:100FC000E795F695E795F695E795EB5FFE4F20815F
:100FD0004770552781E090E002C0880F991F4A951D
:100FE000E2F78095909530E082239323808380916F
:100FF000DE019091DF01883E934020F01092DF01E6
:101000001092DE012091DE013091DF018091DC0140
:101010009091DD012817390759F481E08093E001B0
:101020001092DF011092DE011092DD011092DC01BE
:10103000FF91EF919F918F915F914F913F912F91F0
:101040000F900FBE0F901F901895CF93DF93CDB7E1
:10105000DEB7C15AD1090FB6F894DEBF0FBECDBFBF
:10106000FE01ED57FF4F8AE0DF01282F1D922A95E0
:10107000E9F73A97DF011D928A95E9F78CE3FC972F
:10108000DF01282F1D922A95E9F7FC97DF011D92B9
:101090008A95E9F780E290E2A0E2B0E0C357DF4F23
:1010A00088839983AA83BB83CD58D04081EE91E099
:1010B0000E948E05E12C00E220E440E468E476E042
:1010C00081EE91E00E94870481EE91E00E94A105EB
:1010D000BFEFEBE7F2E9B150E040F040E1F700C0CC
:1010E000000081EE91E00E948E0581EE91E00E9469
:1010F000A10553985B9AE1E8F0E0808188608083E5
:10110000808182608083EFE6F0E08081826080836E
:1011100078948FEC97E0909389008093880010E09A
:10112000CF55DF4F1882C15AD040C056DF4F1882CA
:10113000C05AD040C156DF4F1882CF59D040C25656
:10114000DF4F1882CE59D040C356DF4F1882CD5999
:10115000D040C456DF4F1882CC59D040CC56DF4F18
:101160001882C459D040CB56DF4F1882C559D040A1
:10117000C556DF4F1882CB59D040CA56DF4F188270
:10118000C659D040212C24E6CF56DF4F2883C159C1
:10119000D040412C512C4E0139E7830E911CC401E3
:1011A0000A96C956DF4F99838883C759D0408091EA
:1011B000E0018823E1F31092E00181EE91E00E94CA
:1011C0008E0580910401882309F4D4C109E121E747
:1011D0004CE06AE081EE91E00E945F050CE04BE29A
:1011E000602F81EE91E00E940F050E5F0037B9F786
:1011F000CF56DF4F9881C159D040943651F401E069
:1012000020E04FE361E971E085E891E00E944E063D
:1012100055C5CF56DF4FA881C159D040AA3009F03B
:101220004DC501E020E04FE360EA71E085E891E020
:101230000E944E0608E221E74FE16AE081EE91E06C
:101240000E945F0564E1C556DF4FB881CB59D0409D
:101250006B1BCE0183579F4F0E945E0702E020E088
:101260004FE7BE0163577F4F85E891E00E944E062D
:1012700025C5EFEFCE1ADE0AF8E0CF16D10421F42F
:101280000F5F1F4FC32CD12CA3942B2DF801EB5FC4
:10129000FE4F808190E00C2C02C0959587950A94B2
:1012A000E2F7382F3170B32EE414F50470F16E14A8
:1012B0007F0458F1211118C0332309F449C0C70134
:1012C00084199509CE56DF4F68817981C259D04083
:1012D0000E94A50FE3E8F0E0EC0FFD1FE60FF71FFB
:1012E00080818F5F808302C0332391F1CF56DF4F1F
:1012F0008881C159D0408A3051F426E041E26A2DFC
:1013000081EE91E00E942B0502C0BB2009F19701FC
:10131000ADECBCEC0E94BF0F96958795969587958E
:1013200096958795AC01440F551F9C01220F331FE2
:10133000220F331F220F331F240F351FA701421B1B
:10134000530B425F6CE0680F81EE91E00E940F0545
:101350009FEFE91AF90AA8EEEA16A3E0FA0609F0E7
:1013600088CF34019E012D573F4F790164016CE015
:101370003B2C5701F7018081882329F0D6018C91FD
:101380008F5F8C9302C0F60110821AE0160FD6010F
:101390004D916D014195440F415C0FE3212F81EE8A
:1013A00091E00E945F05F5011082FFEFEF1AFF0A3E
:1013B000612F1037F1F6132DF401CA56DF4F288143
:1013C000C659D040C956DF4F48815981C759D040CE
:1013D0003E2F38198191D401A20DB11D9C9198170F
:1013E00010F4222D232E281718F4821508F4232F29
:1013F000E417F50769F7CA56DF4F2883C659D0406E
:10140000022DCF56DF4F2881C159D0402436D9F460
:10141000822D90E0F401E80FF91F20812A3008F4B2
:10142000A9C024E6289F2001299F500C1124F40113
:10143000C956DF4F88819981C759D04011928E17C4
:101440009F07E1F708C0CF56DF4F3881C159D04020
:101450003A3009F08FC09201369527953695279539
:10146000ABE7B4E10E94BF0F7C01F694E7946E2DC8
:10147000660F862F880F880F680F645F25E049E1AB
:1014800081EE91E00E942B058FEFE81AF80AEE0C2E
:101490006E2D660F660F6E0D645F25E049E181EEEB
:1014A00091E00E942B05C556DF4F9881CB59D04063
:1014B0009F5FC556DF4F9883CB59D040943128F1B8
:1014C000F401C956DF4F88819981C759D0401192E4
:1014D0008E179F07E1F70E941A102091DE013091CC
:1014E000DF01280F311D3093DF012093DE01C55647
:1014F000DF4F1882CB59D040A4E6CF56DF4FA883E8
:10150000C159D040412C512C06C0BAE0CF56DF4F14
:10151000B883C159D040802F90E0F401E80FF91F43
:1015200020812A3038F19C01220F331F880F991F28
:10153000880F991F880F991F820F931F0596480ED9
:10154000591E5092DD014092DC01F301C956DF4F74
:1015500088819981C759D04011928E179F07E1F772
:1015600010920401E4E6CF56DF4FE883C159D04022
:10157000412C512C8091040181119BC3CB56DF4F2C
:10158000F881C559D040F1112EC001E020E04FE3B1
:101590006EEA71E085E891E00E944E0609E121E7DC
:1015A0004CE06AE081EE91E00E945F0523E049E1B2
:1015B00066E181EE91E00E942B0523E049E160E2C3
:1015C00081EE91E00E942B0523E049E16AE281EE81
:1015D00091E00E942B0523E049E16EE381EE91E06A
:1015E0000E942B053FC001E020E04FE36EEB71E06D
:1015F00085E891E00E944E0609E121E74CE06AE0AF
:1016000081EE91E00E945F0523E049E166E181EE11
:1016100091E00E942B0523E049E160E281EE91E038
:101620000E942B0523E049E16AE281EE91E00E94ED
:101630002B0523E049E16EE381EE91E00E942B054A
:10164000CC56DF4F2881C459D0402F5FCC56DF4F96
:101650002883C459D0402C3328F0CC56DF4F188251
:10166000C459D040CC56DF4F3881C459D040832F65
:1016700090E0FE01E80FF91F15AEFE01E80FF91F1B
:101680001182E12CF12CCE56DF4F1882C259D04086
:10169000312C612C712CC12CD12CA12CB12C03C06C
:1016A0008FEFE81AF80A9FEFC91AD90AA8E0CA16FC
:1016B000D10409F05FC3BFEFAB1ABB0AF501EB5FC2
:1016C000FE4F8081182F117080FF44C0C12CD12C97
:1016D0009701ADECBCEC0E94BF0F9695879596954F
:1016E000879596958795AC01440F551F9C01220F55
:1016F000331F220F331F220F331F240F351FA70163
:10170000421B530B425F6CE0680F81EE91E00E9438
:101710000F05E4E6EE16F10430F0F8ECEF16F104F4
:1017200030F473940BC028ECE216F10438F03CE27C
:10173000E31631E0F30638F463940EC08CE2E81649
:1017400081E0F80648F094EFE91691E0F90620F4FC
:10175000339402C0C12CD12CA4EFEA16A1E0FA0602
:1017600009F086C2B4E5B71550F481E0FE01CC560D
:10177000DF4F2881C459D040E20FF11D85AF34E519
:10178000361550F481E0FE01CC56DF4F9881C459E4
:10179000D040E90FF11D8183A9EAA31530F4B1E02F
:1017A000CE56DF4FB883C259D040CB56DF4FE881C9
:1017B000C559D040E111CEC28DAD882309F4ADC228
:1017C0008981882309F4A9C2CE56DF4FF881C25916
:1017D000D040F111E2C0A1C26FE871E002C06DE833
:1017E00071E003E02EE143E285E891E00E944E06BD
:1017F000672DCE0183579F4F0E945E072EE14DE279
:10180000BE0163577F4F85E891E00E944E0600E0DD
:101810002AE240E06DEC71E085E891E00E944E061E
:10182000C756DF4FE881F981C959D040EC0FFD1F41
:101830008181811103C06FE871E002C06DE871E041
:1018400003E02AE243E285E891E00E944E06662D1D
:10185000CE0183579F4F0E945E072AE24DE2BE01F0
:1018600063577F4F85E891E00E944E0600E026E333
:1018700040E062ED71E085E891E00E944E06CE56B0
:10188000DF4F2881C259D040211103C06FE871E0B9
:1018900002C06DE871E003E026E343E285E891E0F1
:1018A0000E944E06632DCE0183579F4F0E945E0714
:1018B00026E34DE2BE0163577F4F85E891E00E9429
:1018C0004E06312C612C712CEBCE2F969FAD2F97AD
:1018D00060968FAD609728E2829F802D112430E5BD
:1018E000939F800D112466969FAD6697980F629620
:1018F0002FAD6297220F822F880F880F820F980FCB
:1019000061968FAD6197282F220F220F822F880FAB
:10191000880F820F980F63968FAD6397282F220F41
:1019200064968FAD6497820F282F220F65968FAD36
:101930006597820F880F980FCF55DF4F9883C15A54
:10194000D04064C0CC56DF4F8881C459D0408D311F
:1019500049F567968FAD6797880F982F990F990F64
:10196000980F68968FAD6897880F880F880F890F3A
:101970006B969FAD6B97980F69968FAD6997282FDF
:10198000220F6A968FAD6A97820F880F980FC05604
:10199000DF4F9883C05AD04055C0CC56DF4F1882D5
:1019A000C459D040CC56DF4F9881C459D0409332AF
:1019B00069F56C968FAD6C97880F880F282F220FD2
:1019C000220F280F6D968FAD6D97880F982F990F66
:1019D000990F890F820FA1962FADA197280F6E96B0
:1019E0008FAD6E97982F990F6F968FAD6F97890F68
:1019F000982F990FA0968FADA097890F880F280F69
:101A0000C156DF4F2883CF59D04050C0CC56DF4F4E
:101A1000A881C459D040A632A9F4A2969FADA2973E
:101A2000A3968FADA397B2E09B9F800D1124880FE2
:101A3000A4969FADA497890FC256DF4F8883CE59D5
:101A4000D04072C0CC56DF4FE881C459D040EC3250
:101A500069F5A5968FADA597880F880F282F220FBF
:101A6000220F280FA6968FADA697880F982F990F53
:101A7000990F890F820FAA962FADAA97280FA796C4
:101A80008FADA797982F990FA8968FADA897890F1C
:101A9000982F990FA9968FADA997890F880F280FB6
:101AA000C356DF4F2883CD59D04045C0CC56DF4FB9
:101AB000F881C459D040F333B9F5AB962FADAB974D
:101AC000AC968FADAC97982F990F990F892F880FEF
:101AD000880F890F38E2239F800D1124E1969FAD76
:101AE000E197980FAE968FADAE97880F880F880F4D
:101AF000980FAD968FADAD97282F220F822F880FAC
:101B0000880F820F980FAF968FADAF97282F220FB7
:101B1000E0968FADE097820F880F980FC456DF4F85
:101B20009883CC59D04007C0CC56DF4F8881C45928
:101B3000D0408831A0F0CF55DF4F6881C15AD040E6
:101B4000CE0183579F4F0E945E0703E02EE148E2DB
:101B5000BE0163577F4F85E891E00E944E06CC5648
:101B6000DF4F9881C459D0409D31A0F0C056DF4F5F
:101B70006881C05AD040CE0183579F4F0E945E07B4
:101B800003E02EE144E1BE0163577F4F85E891E019
:101B90000E944E06CC56DF4FA881C459D040A332D4
:101BA000A0F0C156DF4F6881CF59D040CE01835796
:101BB0009F4F0E945E0703E02EE140E0BE016357A5
:101BC0007F4F85E891E00E944E06CC56DF4FB881EA
:101BD000C459D040B632A0F0C256DF4F6881CE590A
:101BE000D040CE0183579F4F0E945E0703E02EE155
:101BF00046E4BE0163577F4F85E891E00E944E06A0
:101C0000CC56DF4FE881C459D040EC32A0F0C35627
:101C1000DF4F6881CD59D040CE0183579F4F0E943E
:101C20005E0703E02AE240E0BE0163577F4F85E88C
:101C300091E00E944E06CC56DF4FF881C459D04047
:101C4000F33308F490C0C456DF4F6881CC59D040BC
:101C5000CE0183579F4F0E945E0703E02AE244E1D2
:101C6000BE0163577F4F85E891E00E944E067BC01E
:101C7000C7010196883E934008F412CDCB56DF4F42
:101C80003881C559D0403323A1F0CC56DF4F68814D
:101C9000C459D040CE0183579F4F0E945E0702E097
:101CA00020E040E8BE0163577F4F85E891E00E9445
:101CB0004E0681EE91E00E94A10579CACF56DF4F12
:101CC000A881C159D0408A2F90E03C01660C771C56
:101CD000880F991F880F991F880F991F860D971DD0
:101CE0003201B1E06B1A7108680E791E0CE004191C
:101CF000212FE12CF12CCC24C394D12CA12CB12C7C
:101D0000EA2FF0E0CE56DF4FF983E883C259D04086
:101D1000312C802F8501A82EB9CA00E02EE140E0C9
:101D200067ED71E085E891E00E944E06CC56DF4FEA
:101D30009881C459D040892F90E0C756DF4F9983CE
:101D40008883C959D040FC01EC0FFD1F85AD81117E
:101D500046CD42CDCC56DF4FA881C459D040A831E2
:101D600009F0F0CDB2CDB1E0CB56DF4FB883C55905
:101D7000D04096CCF501EB5FFE4F808190E00C2CBB
:101D800002C0959587950A94E2F7182F117080FF8D
:101D9000E3CC9ECC81EE91E00E94950508951F93BF
:101DA000CF93DF93EC01162F0E94AF0560E0CE01C8
:101DB0000E94DD05612FCE010E94DD05CE010E944B
:101DC000F205DF91CF911F910895CF93DF93EC013E
:101DD0000E94A60568E7CE010E94A7056EEACE0123
:101DE0000E94CF0E65EDCE010E94CF0E60E8CE01BD
:101DF0000E94CF0E68EACE010E94CF0E6FE3CE01A3
:101E00000E94CF0E63EDCE010E94CF0E60E0CE01A6
:101E10000E94CF0E60E4CE010E94CF0E6DE8CE018D
:101E20000E94CF0E64E1CE010E94CF0E60E2CE018F
:101E30000E94CF0E60E0CE010E94CF0E61EACE017B
:101E40000E94CF0E68ECCE010E94CF0E6AEDCE014B
:101E50000E94CF0E62E1CE010E94CF0E61E8CE015A
:101E60000E94CF0E6FECCE010E94CF0E69EDCE0125
:101E70000E94CF0E61EFCE010E94CF0E6BEDCE011E
:101E80000E94CF0E60E4CE010E94CF0E64EACE0124
:101E90000E94CF0E66EACE010E94CF0E6FEACE01FD
:101EA0000E94CF0EDF91CF910895CF92DF92EF92F3
:101EB000FF920F931F93CF93DF93082F192F7B016E
:101EC00061E20E94CF0E60E0802F912F0E94CF0E22
:101ED0006FE7802F912F0E94CF0E62E2802F912F0B
:101EE0000E94CF0E60E0802F912F0E94CF0E67E0FE
:101EF000802F912F0E94CF0EE7018CEFF81A802FD0
:101F0000912F0E94AF0560E4802F912F0E94DD0584
:101F10006E0180E1C80ED11C6991802F912F0E9423
:101F2000DD05CC15DD05C1F7802F912F0E94F2054C
:101F3000E601CE14DF0419F7DF91CF911F910F91C5
:101F4000FF90EF90DF90CF900895AA1BBB1B51E14B
:101F500007C0AA1FBB1FA617B70710F0A61BB70B19
:101F6000881F991F5A95A9F780959095BC01CD01BE
:101F70000895EE0FFF1F0590F491E02D0994A29FA4
:101F8000B001B39FC001A39F700D811D1124911D4D
:101F9000B29F700D811D1124911D08958F929F9203
:101FA000AF92BF92CF92DF92EF92FF92CF93DF93E7
:101FB000EC01688179818A819B81611571058105B8
:101FC000910521F464E279ED8BE597E02DE133EFA3
:101FD00041E050E00E942A1049015A019B01AC01E6
:101FE000A7EAB1E40E9449106B017C01ACEEB4EFAA
:101FF000A50194010E945710DC01CB018C0D9D1DA1
:10200000AE1DBF1DB7FF03C00197A109B04888836B
:102010009983AA83BB839F77DF91CF91FF90EF9045
:10202000DF90CF90BF90AF909F908F9008950E94C7
:10203000CE0F089580E091E00E94CE0F0895A0E0B9
:10204000B0E08093000190930101A0930201B0934E
:1020500003010895052E97FB1EF400940E94411081
:1020600057FD07D00E945C1007FC03D04EF40C947F
:10207000411050954095309521953F4F4F4F5F4F00
:10208000089590958095709561957F4F8F4F9F4FE4
:1020900008950E94BF0FA59F900DB49F900DA49F1F
:1020A000800D911D11240895B7FF0C9449100E94D2
:1020B0004910821B930B0895A1E21A2EAA1BBB1B89
:1020C000FD010DC0AA1FBB1FEE1FFF1FA217B30704
:1020D000E407F50720F0A21BB30BE40BF50B661F1A
:1020E000771F881F991F1A9469F7609570958095DE
:1020F00090959B01AC01BD01CF010895F894FFCFED
:1021000001000000017F000000000000000000004E
:1021100000000000000000000000000000000000BF
:1021200000000000000000000000000000000000AF
:10213000000000000000000000000000000000009F
:10214000000000000000000000000000000000008F
:10215000000000000000000000000000000000007F
:10216000000000000000000000000000000000006F
:10217000000000000000000000000000000000005F
:1021800000000000000B217E0224013E02310030DD
:1021900000536561726368203A203130306D7300FE
:1021A000536561726368203A2031306D73004D6968
:1021B0006E206D61726B20736561726368004D699A
:1021C0006E206D61726B20666F756E64004269747B
:0C21D000420042697443004269744100FF
:00000001FF
